:020000040000FA
:0400000007EF00F016
:0A0008006782EEED0CF05EEF16F0DB
:0510000000256900005D
:10100600010E01010A6F0001FD51FE11D8A40EEF79
:1010160008F010EF08F015EF08F0000E01010A6F56
:101026008AEF0AF0000E01010B6F000E0C6F000E26
:101036000D6F000E0E6F3EEF0AF0AC98B896AC94AA
:10104600FDC0D9FFFEC0DAFFDECF19F0DECF1AF001
:10105600DECF1BF0DECF1CF0000E9EEC10F019C0A8
:101066002BF01AC02CF01BC02DF01CC02EF0000E69
:10107600276E240E286EF40E296E4A0E2A6ED1ECC7
:101086000EF027C00FF128C010F129C011F12AC0B7
:1010960012F1000E2B6E000E2C6E800E2D6E420E7F
:1010A6002E6E0FC127F010C128F011C129F012C110
:1010B6002AF0D1EC0EF027C040F028C041F029C03C
:1010C60042F02AC043F0000E446E000E456E800EBC
:1010D600466EBF0E476E8DEC0AF040C00BF141C064
:1010E6000CF142C00DF143C00EF16BEF0AF0AC9863
:1010F600B896AC84FDC0D9FFFEC0DAFFDECF19F08A
:10110600DECF1AF0DECF1BF0DECF1CF0000E9EEC19
:1011160010F019C02BF01AC02CF01BC02DF01CC00B
:101126002EF0000E276E240E286EF40E296E4A0E3F
:101136002A6ED1EC0EF027C00FF128C010F129C09D
:1011460011F12AC012F1000E2B6E000E2C6E800ECD
:101156002D6E410E2E6E0FC127F010C128F011C161
:1011660029F012C12AF0D1EC0EF027C040F028C0B9
:1011760041F029C042F02AC043F0000E446E000E32
:10118600456E800E466EBF0E476E8DEC0AF040C06F
:101196000BF141C00CF142C00DF143C00EF16BEFF3
:1011A6000AF0AC98B886AC94FDC0D9FFFEC0DAFF51
:1011B600DECF19F0DECF1AF0DECF1BF0DECF1CF04B
:1011C600000E9EEC10F019C02BF01AC02CF01BC0BC
:1011D6002DF01CC02EF0000E276E240E286EF40E85
:1011E600296E4A0E2A6ED1EC0EF027C00FF128C0E8
:1011F60010F129C011F12AC012F1000E2B6E000E5B
:101206002C6E800E2D6E410E2E6E0FC127F010C172
:1012160028F011C129F012C12AF0D1EC0EF027C036
:1012260040F028C041F029C042F02AC043F0000E29
:10123600446E000E456E800E466EBF0E476E8DECF8
:101246000AF040C00BF141C00CF142C00DF143C0A1
:101256000EF16BEF0AF0AC98B886AC84FDC0D9FFEE
:10126600FEC0DAFFDECF19F0DECF1AF0DECF1BF0BC
:10127600DECF1CF0000E9EEC10F019C02BF01AC049
:101286002CF01BC02DF01CC02EF0000E276E240E75
:10129600286EF40E296E4A0E2A6ED1EC0EF027C087
:1012A6000FF128C010F129C011F12AC012F1000E69
:1012B6002B6E000E2C6E800E2D6E400E2E6E0FC104
:1012C60027F010C128F011C129F012C12AF0D1EC83
:1012D6000EF027C040F028C041F029C042F02AC0D5
:1012E60043F0000E446E000E456E800E466EBF0E35
:1012F600476E8DEC0AF040C00BF141C00CF142C0C4
:101306000DF143C00EF16BEF0AF0AC98B896FDC034
:10131600D9FFFEC0DAFFDECF19F0DECF1AF0DECF3E
:101326001BF0DECF1CF0000E9EEC10F019C02BF067
:101336001AC02CF01BC02DF01CC02EF0000E276E1C
:10134600240E286EF40E296E4A0E2A6ED1EC0EF08B
:1013560027C00FF128C010F129C011F12AC012F1DF
:10136600000E2B6E000E2C6E800E2D6E400E2E6E15
:101376000FC127F010C128F011C129F012C12AF0BF
:10138600D1EC0EF027C040F028C041F029C042F051
:101396002AC043F0000E446E000E456E800E466E67
:1013A600BF0E476E8DEC0AF040C00BF141C00CF148
:1013B60042C00DF143C00EF16BEF0AF0AC98B8864F
:1013C600FDC0D9FFFEC0DAFFDECF19F0DECF1AF07E
:1013D600DECF1BF0DECF1CF0000E9EEC10F019C025
:1013E6002BF01AC02CF01BC02DF01CC02EF0000EE6
:1013F600276E240E286EF40E296E4A0E2A6ED1EC44
:101406000EF027C00FF128C010F129C011F12AC033
:1014160012F1000E2B6E000E2C6E800E2D6E400EFD
:101426002E6E0FC127F010C128F011C129F012C18C
:101436002AF0D1EC0EF027C040F028C041F029C0B8
:1014460042F02AC043F0000E446E000E456E800E38
:10145600466EBF0E476E8DEC0AF040C00BF141C0E0
:101466000CF142C00DF143C00EF16BEF0AF0000E15
:101476000A6F6BEF0AF0000120EE04F0FD51D92649
:10148600FE51DA22DF500101086F096B0951000A8B
:10149600D8B450EF0AF03AEF0AF00851000AD8B46F
:1014A60020EF08F0010AD8B47AEF08F0030AD8B49E
:1014B600D4EF08F0010AD8B42EEF09F0070AD8B421
:1014C60088EF09F0010AD8B4E1EF09F03AEF0AF023
:1014D6000BC119F00CC11AF00DC11BF00EC11CF0A6
:1014E600FCEC13F01950AF6E0BC119F00CC11AF0D9
:1014F6000DC11BF00EC11CF0FCEC13F01AC019F064
:101506001BC01AF01CC01BF01C6A1950B06E0101FA
:101516000A5112004350800B0101046F43504324CB
:10152600066F42AE99EF0AF09BEF0AF09CEF0AF0C5
:1015360006810651D8B4A2EF0AF0A4EF0AF0B9EF7B
:101546000AF00629D8A4AAEF0AF0ACEF0AF0B4EF25
:101556000AF0000E406E000E416E000E426E000E46
:10156600436E428E000E436EC1EF0AF0000E406ECF
:10157600000E416E000E426E000E436E4750800B09
:10158600056F04510519D8B4CBEF0AF0CDEF0AF078
:10159600CEEF0AF0048D47504724056F46AED6EFCE
:1015A6000AF0D8EF0AF0D9EF0AF005810551D8B450
:1015B600DFEF0AF0E1EF0AF0F6EF0AF00529D8A40A
:1015C600E7EF0AF0E9EF0AF0F1EF0AF0000E446ED9
:1015D600000E456E000E466E000E476E468E000EDD
:1015E600476EFEEF0AF0000E446E000E456E000ECA
:1015F600466E000E476E0651055DD8B005EF0BF03E
:1016060007EF0BF02EEF0BF004AD0CEF0BF00EEF27
:101616000BF010EF0BF0800E041B06C107F105C19D
:1016260006F107C105F140C007F144C040F007C10B
:1016360044F041C007F145C041F007C145F042C042
:1016460007F146C042F007C146F043C007F147C064
:1016560043F007C147F0000E076F065105C100F1C0
:10166600016B005F000E015B01BF43EF0BF0015100
:1016760009E11A0E005DD8A043EF0BF045EF0BF021
:101686007CEF0BF04050411042104310D8A44EEFAF
:101696000BF051EF0BF0010E52EF0BF0000E076F3F
:1016A600000E406E000E416E000E426E000E436E3E
:1016B60005C106F185EF0BF007A164EF0BF066EFAD
:1016C6000BF06CEF0BF0D89007310109076F6EEF46
:1016D6000BF0D890073340A073EF0BF075EF0BF0CB
:1016E60076EF0BF0078F43344332423241324032B9
:1016F600062B0551065DD8A083EF0BF085EF0BF0A6
:101706005FEF0BF004BD8AEF0BF08CEF0BF0CCEF24
:101716000BF00651D8A492EF0BF094EF0BF09EEF6E
:101726000BF0000E406E000E416E000E426E000E73
:10173600436EEDEF0CF04450402645504122465092
:1017460042224750432243A0ABEF0BF0ADEF0BF024
:1017560059EF0CF007A1B2EF0BF0B4EF0BF0BAEFB4
:101766000BF0D89007310109076FBCEF0BF0D8904A
:10177600073340A0C1EF0BF0C3EF0BF0C4EF0BF043
:10178600078F43344332423241324032062B59EFFF
:101796000CF04450405C4550415846504258435026
:1017A600800A006F4750800A0059D8B0DDEF0BF071
:1017B600DFEF0BF00AEF0CF04050445C006F415035
:1017C6004558016F42504658026F43504758036FC1
:1017D600FF0E0025406EFF0E0121416EFF0E022115
:1017E600426EFF0E0321436E800E041B076D0751E8
:1017F600D8A400EF0CF002EF0CF012EF0CF0010E83
:101806004026000E41224222432212EF0CF04450A1
:10181600405E4550415A4650425A4750435A4050FE
:10182600411042104310D8A41BEF0CF01DEF0CF032
:1018360052EF0CF00751D8A423EF0CF025EF0CF073
:1018460052EF0CF0000E406E000E416E000E426E1E
:10185600000E436EEDEF0CF0D8904036413642361E
:10186600433607AF39EF0CF03BEF0CF03CEF0CF0D2
:10187600408007A141EF0CF043EF0CF047EF0CF06E
:10188600D880073749EF0CF0D89007370651D8B4FF
:101896004FEF0CF051EF0CF052EF0CF0060742AE92
:1018A60057EF0CF059EF0CF02FEF0CF0000E056F10
:1018B60007AF60EF0CF062EF0CF07AEF0CF007C1A7
:1018C60000F17F0E0017D8B46BEF0CF06DEF0CF043
:1018D60071EF0CF0010E056F7AEF0CF040A076EF79
:1018E6000CF078EF0CF07AEF0CF06DEF0CF0055180
:1018F600D8B480EF0CF082EF0CF0ADEF0CF0010ED7
:101906004026000E41224222432243A08DEF0CF0D6
:101916008FEF0CF0ADEF0CF040C000F141C001F1CB
:1019260042C002F143C003F10335033302330133EE
:10193600003300C140F001C141F002C142F003C1D1
:1019460043F00629D8B4AAEF0CF0ACEF0CF0ADEFDB
:101956000CF0062B0629D8B4B3EF0CF0B5EF0CF05B
:10196600BDEF0CF00651D8A4BBEF0CF0BDEF0CF0A8
:10197600CFEF0CF0000E406E000E416E000E426E70
:10198600000E436E0651D8A4CBEF0CF0CDEF0CF051
:10199600CFEF0CF0000E046F06A1D4EF0CF0D6EFDB
:1019A6000CF0D9EF0CF0428EDAEF0CF0429ED89094
:1019B6000631436E04AFE2EF0CF0E4EF0CF0E5EF16
:1019C6000CF0438E40C040F041C041F042C042F0AE
:1019D60043C043F012000600FACF13F0FBCF14F019
:1019E600D9CF15F0DACF16F0F3CF17F0F4CF18F001
:1019F600F2A800EF0DF002EF0DF00BEF0DF0F2A2E2
:101A060007EF0DF009EF0DF00BEF0DF0F9EC17F005
:101A1600F0A610EF0DF012EF0DF01BEF0DF0F0A099
:101A260017EF0DF019EF0DF01BEF0DF0F7EC17F0B7
:101A3600F0A820EF0DF022EF0DF02BEF0DF0F0A245
:101A460027EF0DF029EF0DF02BEF0DF0F5EC17F069
:101A5600F2A630EF0DF032EF0DF04CEF0DF0F2A0E4
:101A660037EF0DF039EF0DF04CEF0DF081A83EEF9A
:101A76000DF040EF0DF04CEF0DF06004D8A446EFEA
:101A86000DF048EF0DF04CEF0DF0000E606EF3EC2C
:101A960017F0F2A651EF0DF053EF0DF06DEF0DF0CC
:101AA600F2A058EF0DF05AEF0DF06DEF0DF081B882
:101AB6005FEF0DF061EF0DF06DEF0DF06050D8A403
:101AC60067EF0DF069EF0DF06DEF0DF0010E606E32
:101AD600F1EC17F0F2A672EF0DF074EF0DF08EEF49
:101AE6000DF0F2A079EF0DF07BEF0DF08EEF0DF01B
:101AF60081AA80EF0DF082EF0DF08EEF0DF05F04FE
:101B0600D8A488EF0DF08AEF0DF08EEF0DF0000EE1
:101B16005F6EEFEC17F0F2A693EF0DF095EF0DF078
:101B2600AFEF0DF0F2A09AEF0DF09CEF0DF0AFEFD6
:101B36000DF081BAA1EF0DF0A3EF0DF0AFEF0DF0B0
:101B46005F50D8A4A9EF0DF0ABEF0DF0AFEF0DF09D
:101B5600010E5F6EEDEC17F0F2A6B4EF0DF0B6EFE6
:101B66000DF0D0EF0DF0F2A0BBEF0DF0BDEF0DF0D4
:101B7600D0EF0DF081ACC2EF0DF0C4EF0DF0D0EF59
:101B86000DF05E04D8A4CAEF0DF0CCEF0DF0D0EF47
:101B96000DF0000E5E6EEBEC17F0F2A6D5EF0DF031
:101BA600D7EF0DF0F1EF0DF0F2A0DCEF0DF0DEEF68
:101BB6000DF0F1EF0DF081BCE3EF0DF0E5EF0DF068
:101BC600F1EF0DF05E50D8A4EBEF0DF0EDEF0DF058
:101BD600F1EF0DF0010E5E6EE9EC17F0F2A6F6EFEE
:101BE6000DF0F8EF0DF012EF0EF0F2A0FDEF0DF094
:101BF600FFEF0DF012EF0EF081AE04EF0EF006EFE0
:101C06000EF012EF0EF05D04D8A40CEF0EF00EEFFE
:101C16000EF012EF0EF0000E5D6EE7EC17F0F2A676
:101C260017EF0EF019EF0EF033EF0EF0F2A01EEFE5
:101C36000EF020EF0EF033EF0EF081BE25EF0EF022
:101C460027EF0EF033EF0EF05D50D8A42DEF0EF017
:101C56002FEF0EF033EF0EF0010E5D6EE5EC17F090
:101C66009DAC38EF0EF03AEF0EF043EF0EF09EAC5F
:101C76003FEF0EF041EF0EF043EF0EF0FFEC17F0E2
:101C8600F2AA48EF0EF04AEF0EF053EF0EF0F2A470
:101C96004FEF0EF051EF0EF053EF0EF0C9EC17F0C8
:101CA6009DA058EF0EF05AEF0EF063EF0EF09EA0D7
:101CB6005FEF0EF061EF0EF063EF0EF0C3EC17F07E
:101CC6009DA268EF0EF06AEF0EF073EF0EF09DA284
:101CD6006FEF0EF071EF0EF073EF0EF0DDEC17F014
:101CE600A0A278EF0EF07AEF0EF083EF0EF0A1A22D
:101CF6007FEF0EF081EF0EF083EF0EF0BDEC17F0E4
:101D06009DA488EF0EF08AEF0EF093EF0EF09EA4DE
:101D16008FEF0EF091EF0EF093EF0EF0FDEC17F053
:101D2600A0A098EF0EF09AEF0EF0A3EF0EF0A1A090
:101D36009FEF0EF0A1EF0EF0A3EF0EF0FBEC17F005
:101D46009DA8A8EF0EF0AAEF0EF0B3EF0EF09EA836
:101D5600AFEF0EF0B1EF0EF0B3EF0EF0E1EC17F0CF
:101D66009DAAB8EF0EF0BAEF0EF0C3EF0EF09EAAE2
:101D7600BFEF0EF0C1EF0EF0C3EF0EF0F9EC14F06A
:101D860018C0F4FF17C0F3FF16C0DAFF15C0D9FF5D
:101D960014C0FBFF13C0FAFF679211002A50800B94
:101DA600376E2A502A243E6E29AEDCEF0EF0DEEFA7
:101DB6000EF0DFEF0EF03E803E50D8B4E5EF0EF0A9
:101DC600E7EF0EF0FCEF0EF03E28D8A4EDEF0EF094
:101DD600EFEF0EF0F7EF0EF0000E276E000E286EF6
:101DE600000E296E000E2A6E298E000E2A6E04EF52
:101DF6000FF0000E276E000E286E000E296E000EE4
:101E06002A6E2E50800B371A2E502E243F6E2DAE82
:101E16000FEF0FF011EF0FF012EF0FF03F803F5072
:101E2600D8B418EF0FF01AEF0FF02FEF0FF03F288E
:101E3600D8A420EF0FF022EF0FF02AEF0FF0000EDC
:101E46002B6E000E2C6E000E2D6E000E2E6E2D8E3D
:101E5600000E2E6E37EF0FF0000E2B6E000E2C6E5E
:101E6600000E2D6E000E2E6E2B502C102D102E10E7
:101E7600D8A440EF0FF042EF0FF05AEF0FF0000E2C
:101E8600276E000E286E000E296E000E2A6E800E3A
:101E960029127F0E2A1237502A1227C027F028C08F
:101EA60028F029C029F02AC02AF09DEF10F03E50F4
:101EB600D8A460EF0FF062EF0FF06CEF0FF0000E9A
:101EC600276E000E286E000E296E000E2A6E9DEFFC
:101ED60010F03F503EC02FF0306A2F5E000E305A91
:101EE6007F0E2F24386E000E3020396E27C033F057
:101EF60028C034F029C035F02AC036F0000E276E0F
:101F0600000E286E000E296E000E2A6E000E3A6E26
:101F1600000E3B6E000E3C6E000E3D6E000E3F6ED8
:101F2600CDEF0FF03F50D8B49BEF0FF09DEF0FF0C1
:101F3600B4EF0FF0D8903336343635363636D8907F
:101F46002736283629362A363DAEACEF0FF0AEEFEF
:101F56000FF0AFEF0FF02780D8903A363B363C367D
:101F66003D362B50335C2C5034582D5035582E505E
:101F76003658D8A0C1EF0FF0C3EF0FF0CCEF0FF03B
:101F86003D8C2B50335E2C50345A2D50355A2E50E2
:101F9600365A3F2A190E3F64D3EF0FF0D5EF0FF0F4
:101FA60095EF0FF03350341035103610D8B4DEEFFD
:101FB6000FF0E0EF0FF0F8EF0FF03A80F8EF0FF0C8
:101FC600D8902736283629362A363DAEEDEF0FF063
:101FD600EFEF0FF0F0EF0FF02780D8903A363B3650
:101FE6003C363D363806D8A0390629AEFDEF0FF04F
:101FF600FFEF0FF0E3EF0FF0000E3F6E3DAE06EF82
:1020060010F008EF10F02CEF10F0FF0E3A142F6EC0
:10201600FF0E3B14306EFF0E3C14316E7F0E3D14E6
:10202600326E2F50301031103210D8B41DEF10F030
:102036001FEF10F023EF10F0010E3F6E2CEF10F0A3
:1020460027A028EF10F02AEF10F02CEF10F01FEF6A
:1020560010F03F50D8B432EF10F034EF10F058EFD4
:1020660010F0010E2726000E282229222A222AA055
:102076003FEF10F041EF10F058EF10F027C02FF0AF
:1020860028C030F029C031F02AC032F03234323262
:10209600313230322F322FC027F030C028F031C015
:1020A60029F032C02AF0384A392A39BE63EF10F0D7
:1020B600395008E13828D8A063EF10F065EF10F02A
:1020C60070EF10F0000E396E3868000E276E000EA5
:1020D600286E000E296E000E2A6E39BE7DEF10F0B6
:1020E600395006E13804D8B07BEF10F07DEF10F0E0
:1020F6008BEF10F0000E396E000E386E000E276E54
:10210600000E286E000E296E000E2A6E000E376E27
:1021160038C03EF03EA092EF10F094EF10F097EF2B
:1021260010F0298E98EF10F0299ED8903E302A6E36
:102136004EEF0FF01200216E2150D8B4A5EF10F02B
:10214600A7EF10F0C9EF10F01CBEAEEF10F0ACEF29
:1021560010F0C9EF10F019C01DF01AC01EF01BC018
:102166001FF01CC020F01D1E1E1E1F1E201E1D2A35
:10217600000E1E221F2220221DC023F01EC024F0A6
:102186001FC025F020C026F0D1EF10F019C023F0B3
:102196001AC024F01BC025F01CC026F019501A10D6
:1021A6001B101C10D8A4DAEF10F0DCEF10F0E6EFED
:1021B60010F0000E196E000E1A6E000E1B6E000E49
:1021C6001C6E77EF11F0960E226EF0EF10F0222AB9
:1021D600D8902632253224322332000E23141D6E67
:1021E600000E24141E6E000E25141F6EFE0E2614FD
:1021F600206E1D501E101F102010D8A405EF11F0E0
:1022060007EF11F0EAEF10F015EF11F0222A010E98
:102216002326000E242225222622D8902632253275
:1022260024322332000E23141D6E000E24141E6E5B
:10223600000E25141F6EFF0E2614206E1D501E1054
:102246001F102010D8A42AEF11F02CEF11F009EF7F
:1022560011F034EF11F02206D890233624362536B5
:10226600263625BE39EF11F03BEF11F043EF11F0A2
:10227600020E226041EF11F043EF11F02EEF11F044
:1022860022B048EF11F04AEF11F04BEF11F0259E06
:10229600D890223222C01DF01E6A1F6A206A1DC015
:1022A60020F01F6A1E6A1D6A1D5023121E5024123A
:1022B6001F502512205026122150D8B465EF11F078
:1022C60067EF11F06FEF11F01CBE6EEF11F06CEFBF
:1022D60011F06FEF11F0268E23C019F024C01AF00A
:1022E60025C01BF026C01CF01200010E216E1950ED
:1022F6001A10D8B481EF11F083EF11F0A3EF11F0AB
:1023060019C0D9FF1AC0DAFFDF50070B1B6E050E86
:102316001B6090EF11F092EF11F0A3EF11F019C0CE
:10232600D9FF1AC0DAFFDF30E832E832070B1B6E3E
:10233600070E1B64A1EF11F0A3EF11F006EF12F0E8
:10234600000E216E27EF12F019C0D9FF1AC0DAFF6E
:10235600DF30E832E832070B1B6E010E1C6E1B2ABB
:10236600B7EF11F0D8901C361B2EB5EF11F01C50AC
:10237600FF0A1D6E19C0D9FF1AC0DAFFDF50070B1E
:102386001E6E1E50020D9F0EF324D96E000EF42011
:10239600DA6EDECF1FF0DDCF20F01FC0D9FF20C0E0
:1023A600DAFF1D50DF1627EF12F019C0D9FF1AC049
:1023B600DAFFDF30E832E832070B1B6E010E1C6EC7
:1023C6001B2AE8EF11F0D8901C361B2EE6EF11F011
:1023D60019C0D9FF1AC0DAFFDF50070B1D6E1D505A
:1023E600020D9F0EF324D96E000EF420DA6EDECFB6
:1023F6001EF0DDCF1FF01EC0D9FF1FC0DAFF1C5034
:10240600DF1227EF12F019C0D9FF1AC0DAFFDFBCBE
:102416000FEF12F012EF12F0010E13EF12F0000E92
:102426001B6E1C6A1C50000AD8B41CEF12F0A3EFF6
:1024360011F01B50000AD8B4A7EF11F0010AD8B466
:10244600D8EF11F0A3EF11F021501200010E226E09
:1024560019501A10D8B432EF12F034EF12F054EFCC
:1024660012F019C0D9FF1AC0DAFFDF50070B1C6E35
:10247600050E1C6041EF12F043EF12F054EF12F01C
:1024860019C0D9FF1AC0DAFFDF30E832E832070B8D
:102496001C6E070E1C6452EF12F054EF12F0B7EFE9
:1024A60012F0000E226ECCEF12F019C0D9FF1AC03E
:1024B600DAFFDF30E832E832070B1C6E010E1D6EC4
:1024C6001C2A68EF12F0D8901D361C2E66EF12F00B
:1024D6001D50FF0A1E6E19C0D9FF1AC0DAFFDF5061
:1024E600070B1F6E1F50020D8B0EF324D96E000EC4
:1024F600F420DA6EDECF20F0DDCF21F020C0D9FF48
:1025060021C0DAFF1E50DF16CCEF12F019C0D9FF3A
:102516001AC0DAFFDF30E832E832070B1C6E010E14
:102526001D6E1C2A99EF12F0D8901D361C2E97EFBF
:1025360012F019C0D9FF1AC0DAFFDF50070B1E6E62
:102546001E50020D8B0EF324D96E000EF420DA6EA7
:10255600DECF1FF0DDCF20F01FC0D9FF20C0DAFF8D
:102566001D50DF12CCEF12F01B501C6E1D6A1D5061
:10257600000AD8B4C1EF12F054EF12F01C50000A52
:10258600D8B458EF12F0010AD8B489EF12F054EF1C
:1025960012F02250120001500210D8B4D5EF12F0FA
:1025A600D7EF12F0F7EF12F001C0D9FF02C0DAFF41
:1025B600DF50070B046E050E0460E4EF12F0E6EF41
:1025C60012F0F7EF12F001C0D9FF02C0DAFFDF30D8
:1025D600E832E832070B046E070E0464F5EF12F0DA
:1025E600F7EF12F058EF13F06DEF13F001C0D9FFBB
:1025F60002C0DAFFDF30E832E832070B046E010E64
:10260600056E042A09EF13F0D8900536042E07EF5D
:1026160013F00550FF0A066E01C0D9FF02C0DAFFAB
:10262600DF50070B076E0750020D8B0EF324D96E91
:10263600000EF420DA6EDECF08F0DDCF09F008C018
:10264600D9FF09C0DAFF0650DF166DEF13F001C09F
:10265600D9FF02C0DAFFDF30E832E832070B046E3A
:10266600010E056E042A3AEF13F0D8900536042EB3
:1026760038EF13F001C0D9FF02C0DAFFDF50070BB5
:10268600066E0650020D8B0EF324D96E000EF42052
:10269600DA6EDECF07F0DDCF08F007C0D9FF08C03D
:1026A600DAFF0550DF126DEF13F00350046E056A72
:1026B6000550000AD8B462EF13F0F7EF12F0045099
:1026C600000AD8B4F9EF12F0010AD8B42AEF13F0D1
:1026D600F7EF12F01200010E1B6E19501A10D8A453
:1026E60077EF13F079EF13F07DEF13F0000E1B6E0A
:1026F600FAEF13F020EE08F01950D9261A50DA2214
:10270600DFA288EF13F08AEF13F0EAEF13F0AB883D
:1027160020EE08F01950D9261A50DA22DFA096EFDB
:1027260013F098EF13F0BCEF13F09D9A20EE0CF027
:102736001950D9261A50DA22DECF4AF0DDCF4BF0F7
:1027460020EE0EF01950D9261A50DA22DECF48F0C4
:10275600DDCF49F020EE10F01950D9261A50DA22B2
:10276600DECFD3F0DDCFD4F0F28EF28C9D8ACAEFA5
:1027760013F020EE08F01950D9261A50DA22DFB0ED
:10278600C7EF13F0C9EF13F0CAEF13F09D9A20EECE
:1027960008F01950D9261A50DA22DFA4D5EF13F023
:1027A600D7EF13F0DAEF13F0AB8CFAEF13F020EE5D
:1027B60006F01950D9261A50DA22DFB4E5EF13F0E5
:1027C600E7EF13F0FAEF13F0AB9CFAEF13F020EEFD
:1027D60008F01950D9261A50DA22DFB2F5EF13F0B5
:1027E600F7EF13F0FAEF13F0AB98FAEF13F01B5074
:1027F60012001B341C34226E2250D8A405EF14F0AC
:1028060007EF14F011EF14F0000E196E000E1A6E99
:10281600000E1B6E000E1C6E7EEF14F019C01DF02C
:102826001AC01EF01BC01FF01CC020F0200E21EFA6
:1028360014F0D89020321F321E321D32E82E1CEFC3
:1028460014F01D50216E1B8EFF0E1916FF0E1A1660
:10285600FF0E1B16000E1C16960E225E22BE38EFC9
:1028660014F036EF14F04EEF14F02250800A970F52
:10287600D8B040EF14F042EF14F044EF14F007EF35
:1028860014F0D8901C321B321A321932223E44EF11
:1028960014F066EF14F01F0E226454EF14F056EF96
:1028A60014F05EEF14F007EF14F0D89019361A36CC
:1028B6001B361C3622062250D8A464EF14F066EFAD
:1028C60014F058EF14F02150D8B46CEF14F06EEFFA
:1028D60014F076EF14F01C1E1B1E1A1E196C000E47
:1028E6001A221B221C2219C019F01AC01AF01BC08A
:1028F6001BF01CC01CF01200010E1B6E19501A10A2
:10290600D8A488EF14F08AEF14F08EEF14F0000EBE
:102916001B6EF7EF14F020EE06F01950D9261A5068
:10292600DA22DFA299EF14F09BEF14F0E7EF14F030
:10293600AC8A20EE06F01950D9261A50DA22DFA00A
:10294600A7EF14F0A9EF14F0B9EF14F09D9820EE5C
:102956000AF01950D9261A50DA22DECFD5F0DDCF8B
:10296600D6F0F28EF28C9D88C7EF14F020EE06F0BA
:102976001950D9261A50DA22DFB0C4EF14F0C6EF88
:1029860014F0C7EF14F09D9820EE06F01950D926E2
:102996001A50DA22DFA4D2EF14F0D4EF14F0D7EFF6
:1029A60014F0AC8CF7EF14F020EE06F01950D9268F
:1029B6001A50DA22DFB4E2EF14F0E4EF14F0F7EF86
:1029C60014F0AC9CF7EF14F020EE06F01950D9265F
:1029D6001A50DA22DFB2F2EF14F0F4EF14F0F7EF48
:1029E60014F0AC9AF7EF14F01B5012004A504B103B
:1029F600D8B400EF15F002EF15F00EEF15F002D87F
:102A06000EEF15F00500FA6E4A50FD6E4B50FE6E45
:102A1600FF6AFA501200AE50ABA414EF15F016EF91
:102A260015F02BEF15F048504910D8B41DEF15F0EE
:102A36001FEF15F02BEF15F002D82BEF15F0050060
:102A4600FA6E4850FD6E4950FE6EFF6AFA5012004B
:102A5600ABA230EF15F032EF15F048EF15F000019C
:102A6600D351D411D8B43AEF15F03CEF15F048EF36
:102A760015F002D848EF15F00500FA6ED351FD6E39
:102A8600D451FE6EFF6AFA5012001200C10E016E9A
:102A9600000E026E5C0E036E000E046E35EC17F02F
:102AA6000001FF6F7FEF15F0660E0B6E000E0C6EC9
:102AB600DAEC15F00001FF6FC10E016E000E026E1A
:102AC600620E036E77EC17F00001FF6F94EF15F0BE
:102AD600660E0B6E000E0C6E1CEC16F00001FF6FFE
:102AE600C10E016E000E026E610E036E77EC17F0DA
:102AF6000001FF6F94EF15F05C50106E116A1150D3
:102B0600000AD8B489EF15F094EF15F01050630A57
:102B1600D8B457EF15F0070AD8B46BEF15F094EF59
:102B260015F0120023502410D8B49CEF15F09EEF38
:102B360015F0BEEF15F023C0D9FF24C0DAFFDF5031
:102B4600070B256E050E2560ABEF15F0ADEF15F002
:102B5600BEEF15F023C0D9FF24C0DAFFDF30E8321C
:102B6600E832070B256E070E2564BCEF15F0BEEFA5
:102B760015F0C2EF15F0000E266ED8EF15F023C043
:102B860019F024C01AF078EC11F0266E23C019F063
:102B960024C01AF023C0D9FF24C0DAFF000EDFBE1E
:102BA600010E1B6E29EC12F0266E26501200010E45
:102BB6000E6E0B500C10D8A4E3EF15F0E5EF15F0F0
:102BC600E9EF15F0000E0E6E1AEF16F058C00FF072
:102BD6000BC0D9FF0CC0DAFFDF50070B0D6E0F508C
:102BE6000D18F80B0D180F6E0BC0D9FF0CC0DAFFCD
:102BF600DF30E832E832070B0D6E0D460D460D4606
:102C06000F500D18C70B0D180F6E0F9C0BC0D9FF78
:102C16000CC0DAFFDFAC02D00F8E01D00F9E0F0E74
:102C2600016E000E026E010E036ECEEC12F00E5017
:102C36001200010E0E6E0B500C10D8A425EF16F0E4
:102C460027EF16F02BEF16F0000E0E6E5CEF16F067
:102C560057C00FF00BC0D9FF0CC0DAFFDF50070BCF
:102C66000D6E0F500D18F80B0D180F6E0BC0D9FF17
:102C76000CC0DAFFDF30E832E832070B0D6E0D4686
:102C86000D460D460F500D18C70B0D180F6E0F9CF5
:102C96000BC0D9FF0CC0DAFFDFAC02D00F8E01D01B
:102CA6000F9E0F0E016E000E026E000E036ECEEC2E
:102CB60012F00E5012005C0EF66E2F0EF76E000E1E
:102CC600F86E01EE16F010EE10F00900F5CFEEFFEB
:102CD600E550E150FAE1160EF66E2E0EF76E000E76
:102CE600F86E00EE80F010EE53F00900F5CFEEFF1F
:102CF600E550E150FAE19E0EF66E2F0EF76E000ECD
:102D0600F86E00EE5DF010EE0AF00900F5CFEEFF6A
:102D1600E550E150FAE100EED3F02A0EEE6AE8063D
:102D2600FDE100EE48F0150EEE6AE806FDE167905B
:102D36006792000192EF17F0010E2A6E27502810B5
:102D4600D8A4A8EF16F0AAEF16F0AEEF16F0000E14
:102D56002A6EDDEF16F059C02BF027C0D9FF28C028
:102D6600DAFFDF50070B296E2B502918F80B2918AC
:102D76002B6E27C0D9FF28C0DAFFDF30E832E832F1
:102D8600070B296E2946294629462B502918C70BB9
:102D960029182B6E2B9C27C0D9FF28C0DAFFDFAC81
:102DA60002D02B8E01D02B9E2B0E236E000E246E8E
:102DB60095EC15F02A501200010113511411D8A4F4
:102DC600E7EF16F0E9EF16F0EDEF16F0000E156FCF
:102DD60009EF17F0AB9E948C948E13C1FDF014C1CD
:102DE600FEF003EC08F00101156F13C119F014C1D0
:102DF6001AF07FEC14F00101156F13C119F014C11C
:102E06001AF06EEC13F00101156FAB8E155112001E
:102E1600323A08030B131B232B333B890F8A0F8B84
:102E26000F8C0F8D0F800F810F820F830F840F92EF
:102E36000F930F940F950F960F020A121A626A7279
:102E46007A02120A1A222A32020A121A01131B03E2
:102E56000B802500000200020003000000922AC633
:032E66002FA82F63
:102E6A0001500210D8B43CEF17F03EEF17F047EFCD
:102E7A0017F003500410D8A445EF17F047EF17F0E6
:102E8A004BEF17F0000E056E5AEF17F09EAA50EF9F
:102E9A0017F052EF17F047EF17F003C0D9FF04C03D
:102EAA00DAFFAECFDFFF010E056E05501200010EEC
:102EBA001C6E19501A10D8A465EF17F067EF17F0B7
:102ECA006BEF17F0000E1C6E75EF17F0ACA270EFE7
:102EDA0017F072EF17F06BEF17F01BC0ADFF9D886C
:102EEA001C501200010E046E01500210D8A480EF8B
:102EFA0017F082EF17F086EF17F0000E046E90EFCE
:102F0A0017F0ACA28BEF17F08DEF17F086EF17F0E2
:102F1A0003C0ADFF9D8804501200A2EC17F0C10E49
:102F2A00196E000E1A6E610E1B6E5CEC17F0000132
:102F3A00FF6F9EEF17F007EF00F0B6EC17F0C10E27
:102F4A000101136F000E146FDFEC16F00001FF6F22
:102F5A00120037383925343536783132332D263058
:102F6A003D2B660E276E000E286E9FEC16F012009F
:102F7A00A1924D50B36E4CC0B2FF12009E904F50BA
:102F8A00CF6E4EC0CEFF1200F2945150D76E50C091
:102F9A00D6FF1200010101010B0303921202D9ECC0
:102FAA0017F00001FF6F1200AB98AB88010E1200F8
:102FBA009E9252C0CCFF12009D981200AE50120091
:102FCA00F2901200F2901200F2901200F2901200A7
:102FDA00F2901200F2901200F2901200F290120097
:102FEA00F0921200F0901200F2921200A1901200D8
:062FFA009E94120012007B
:020000040020DA
:08000000FFFFFFFFFFFFFFFF00
:020000040030CA
:0E000000FF02091EFF8181FF0FC00FE00F40BD
:00000001FF
