:020000040000FA
:0400000007EF00F016
:0A0008007D82E6ED0CF02AEF15F002
:0510000000256900005D
:10100600010E3E6E3A503B10D8A40CEF08F00EEFDE
:1010160008F012EF08F0000E3E6E84EF0AF0000EA4
:101026003F6E000E406E000E416E000E426E3AEFAD
:101036000AF0AC98B896AC943AC0D9FF3BC0DAFF38
:10104600DECF03F0DECF04F0DECF05F0DECF06F014
:10105600000E86EC10F003C015F004C016F005C0B3
:1010660017F006C018F0000E116E240E126EF40E64
:10107600136E4A0E146EB9EC0EF011C043F012C096
:1010860044F013C045F014C046F0000E156E000E75
:10109600166E800E176E420E186E43C011F044C0D5
:1010A60012F045C013F046C014F0B9EC0EF011C0B2
:1010B6002AF012C02BF013C02CF014C02DF0000E35
:1010C6002E6E000E2F6E800E306EBF0E316E86ECC9
:1010D6000AF02AC03FF02BC040F02CC041F02DC0D2
:1010E60042F065EF0AF0AC98B896AC843AC0D9FFE6
:1010F6003BC0DAFFDECF03F0DECF04F0DECF05F033
:10110600DECF06F0000E86EC10F003C015F004C02A
:1011160016F005C017F006C018F0000E116E240E6A
:10112600126EF40E136E4A0E146EB9EC0EF011C068
:1011360043F012C044F013C045F014C046F0000E50
:10114600156E000E166E800E176E410E186E43C099
:1011560011F044C012F045C013F046C014F0B9ECCB
:101166000EF011C02AF012C02BF013C02CF014C0E0
:101176002DF0000E2E6E000E2F6E800E306EBF0EFE
:10118600316E86EC0AF02AC03FF02BC040F02CC02E
:1011960041F02DC042F065EF0AF0AC98B886AC94E9
:1011A6003AC0D9FF3BC0DAFFDECF03F0DECF04F052
:1011B600DECF05F0DECF06F0000E86EC10F003C0A1
:1011C60015F004C016F005C017F006C018F0000EA2
:1011D600116E240E126EF40E136E4A0E146EB9ECD6
:1011E6000EF011C043F012C044F013C045F014C015
:1011F60046F0000E156E000E166E800E176E410E2E
:10120600186E43C011F044C012F045C013F046C03A
:1012160014F0B9EC0EF011C02AF012C02BF013C076
:101226002CF014C02DF0000E2E6E000E2F6E800EC8
:10123600306EBF0E316E86EC0AF02AC03FF02BC02E
:1012460040F02CC041F02DC042F065EF0AF0AC989A
:10125600B886AC843AC0D9FF3BC0DAFFDECF03F0D4
:10126600DECF04F0DECF05F0DECF06F0000E86EC12
:1012760010F003C015F004C016F005C017F006C044
:1012860018F0000E116E240E126EF40E136E4A0E36
:10129600146EB9EC0EF011C043F012C044F013C046
:1012A60045F014C046F0000E156E000E166E800E48
:1012B600176E400E186E43C011F044C012F045C0C0
:1012C60013F046C014F0B9EC0EF011C02AF012C0AB
:1012D6002BF013C02CF014C02DF0000E2E6E000E55
:1012E6002F6E800E306EBF0E316E86EC0AF02AC06D
:1012F6003FF02BC040F02CC041F02DC042F065EF0E
:101306000AF0AC98B8963AC0D9FF3BC0DAFFDECFF8
:1013160003F0DECF04F0DECF05F0DECF06F0000EE0
:1013260086EC10F003C015F004C016F005C017F0E7
:1013360006C018F0000E116E240E126EF40E136E17
:101346004A0E146EB9EC0EF011C043F012C044F010
:1013560013C045F014C046F0000E156E000E166E52
:10136600800E176E400E186E43C011F044C012F086
:1013760045C013F046C014F0B9EC0EF011C02AF0C7
:1013860012C02BF013C02CF014C02DF0000E2E6EE0
:10139600000E2F6E800E306EBF0E316E86EC0AF098
:1013A6002AC03FF02BC040F02CC041F02DC042F0C7
:1013B60065EF0AF0AC98B8863AC0D9FF3BC0DAFFB1
:1013C600DECF03F0DECF04F0DECF05F0DECF06F091
:1013D600000E86EC10F003C015F004C016F005C030
:1013E60017F006C018F0000E116E240E126EF40EE1
:1013F600136E4A0E146EB9EC0EF011C043F012C013
:1014060044F013C045F014C046F0000E156E000EF1
:10141600166E800E176E400E186E43C011F044C053
:1014260012F045C013F046C014F0B9EC0EF011C02E
:101436002AF012C02BF013C02CF014C02DF0000EB1
:101446002E6E000E2F6E800E306EBF0E316E86EC45
:101456000AF02AC03FF02BC040F02CC041F02DC04E
:1014660042F065EF0AF0000E3E6E65EF0AF020EEE0
:1014760004F03A50D9263B50DA22DF503C6E3D6AE2
:101486003D50000AD8B44AEF0AF036EF0AF03C5055
:10149600000AD8B41CEF08F0010AD8B476EF08F0B9
:1014A600030AD8B4D0EF08F0010AD8B42AEF09F03D
:1014B600070AD8B484EF09F0010AD8B4DDEF09F0C1
:1014C60036EF0AF03FC003F040C004F041C005F01B
:1014D60042C006F044EC13F00350AF6E3FC003F079
:1014E60040C004F041C005F042C006F044EC13F0E1
:1014F60004C003F005C004F006C005F0066A0350F8
:10150600B06E3E5012002D50800B366E2D502D249D
:10151600386E2CAE91EF0AF093EF0AF094EF0AF0D2
:1015260038803850D8B49AEF0AF09CEF0AF0B1EF41
:101536000AF03828D8A4A2EF0AF0A4EF0AF0ACEF1C
:101546000AF0000E2A6E000E2B6E000E2C6E000E98
:101556002D6E2C8E000E2D6EB9EF0AF0000E2A6E3F
:10156600000E2B6E000E2C6E000E2D6E3150800B71
:10157600376E36503718D8B4C3EF0AF0C5EF0AF005
:10158600C6EF0AF0368C31503124376E30AECEEFCE
:101596000AF0D0EF0AF0D1EF0AF037803750D8B40E
:1015A600D7EF0AF0D9EF0AF0EEEF0AF03728D8A401
:1015B600DFEF0AF0E1EF0AF0E9EF0AF0000E2E6E17
:1015C600000E2F6E000E306E000E316E308E000E45
:1015D600316EF6EF0AF0000E2E6E000E2F6E000E24
:1015E600306E000E316E3850375CD8B0FDEF0AF021
:1015F600FFEF0AF026EF0BF036AC04EF0BF006EF28
:101606000BF008EF0BF0800E361A38C039F037C0F1
:1016160038F039C037F02AC039F02EC02AF039C068
:101626002EF02BC039F02FC02BF039C02FF02CC074
:1016360039F030C02CF039C030F02DC039F031C04F
:101646002DF039C031F0000E396E385037C032F007
:10165600336A325E000E335A33BE3BEF0BF0335023
:1016660009E11A0E325CD8A03BEF0BF03DEF0BF010
:1016760074EF0BF02A502B102C102D10D8A446EF27
:101686000BF049EF0BF0010E4AEF0BF0000E396E2E
:10169600000E2A6E000E2B6E000E2C6E000E2D6EA6
:1016A60037C038F07DEF0BF039A05CEF0BF05EEF42
:1016B6000BF064EF0BF0D89039300109396E66EF04
:1016C6000BF0D89039322AA06BEF0BF06DEF0BF0D0
:1016D6006EEF0BF0398E2D342D322C322B322A320E
:1016E600382A3750385CD8A07BEF0BF07DEF0BF033
:1016F60057EF0BF036BC82EF0BF084EF0BF0C4EF24
:101706000BF03850D8A48AEF0BF08CEF0BF096EF65
:101716000BF0000E2A6E000E2B6E000E2C6E000EC5
:101726002D6EE5EF0CF02E502A262F502B2230502E
:101736002C2231502D222DA0A3EF0BF0A5EF0BF09C
:1017460051EF0CF039A0AAEF0BF0ACEF0BF0B2EFB3
:101756000BF0D89039300109396EB4EF0BF0D89000
:1017660039322AA0B9EF0BF0BBEF0BF0BCEF0BF050
:10177600398E2D342D322C322B322A32382A51EF23
:101786000CF02E502A5C2F502B5830502C582D50D0
:10179600800A326E3150800A3258D8B0D5EF0BF03D
:1017A600D7EF0BF002EF0CF02A502E5C326E2B5066
:1017B6002F58336E2C503058346E2D503158356EAC
:1017C600FF0E32242A6EFF0E33202B6EFF0E3420BE
:1017D6002C6EFF0E35202D6E800E361A396C395060
:1017E600D8A4F8EF0BF0FAEF0BF00AEF0CF0010EAD
:1017F6002A26000E2B222C222D220AEF0CF02E5028
:101806002A5E2F502B5A30502C5A31502D5A2A50BE
:101816002B102C102D10D8A413EF0CF015EF0CF094
:101826004AEF0CF03950D8A41BEF0CF01DEF0CF06A
:101836004AEF0CF0000E2A6E000E2B6E000E2C6E78
:10184600000E2D6EE5EF0CF0D8902A362B362C368E
:101856002D3639AE31EF0CF033EF0CF034EF0CF0DF
:101866002A8039A039EF0CF03BEF0CF03FEF0CF07B
:10187600D880393641EF0CF0D89039363850D8B484
:1018860047EF0CF049EF0CF04AEF0CF038062CAE9F
:101896004FEF0CF051EF0CF027EF0CF0000E376E07
:1018A60039AE58EF0CF05AEF0CF072EF0CF039C06D
:1018B60032F07F0E3216D8B463EF0CF065EF0CF001
:1018C60069EF0CF0010E376E72EF0CF02AA06EEF86
:1018D6000CF070EF0CF072EF0CF065EF0CF0375077
:1018E600D8B478EF0CF07AEF0CF0A5EF0CF0010EFF
:1018F6002A26000E2B222C222D222DA085EF0CF05D
:1019060087EF0CF0A5EF0CF02AC032F02BC033F0B5
:101916002CC034F02DC035F0353435323432333204
:10192600323232C02AF033C02BF034C02CF035C02E
:101936002DF03828D8B4A2EF0CF0A4EF0CF0A5EFE8
:101946000CF0382A3828D8B4ABEF0CF0ADEF0CF019
:10195600B5EF0CF03850D8A4B3EF0CF0B5EF0CF09F
:10196600C7EF0CF0000E2A6E000E2B6E000E2C6ECA
:10197600000E2D6E3850D8A4C3EF0CF0C5EF0CF056
:10198600C7EF0CF0000E366E38A0CCEF0CF0CEEFA1
:101996000CF0D1EF0CF02C8ED2EF0CF02C9ED890E0
:1019A60038302D6E36AEDAEF0CF0DCEF0CF0DDEFF2
:1019B6000CF02D8E2AC02AF02BC02BF02CC02CF058
:1019C6002DC02DF012000600FACF01F0FBCF02F079
:1019D600F2A8F0EF0CF0F2EF0CF0FBEF0CF0F2A235
:1019E600F7EF0CF0F9EF0CF0FBEF0CF0F4EC15F060
:1019F600F0A600EF0DF002EF0DF00BEF0DF0F0A0EA
:101A060007EF0DF009EF0DF00BEF0DF0F2EC15F00E
:101A1600F0A810EF0DF012EF0DF01BEF0DF0F0A295
:101A260017EF0DF019EF0DF01BEF0DF0F0EC15F0C0
:101A3600F2A620EF0DF022EF0DF03CEF0DF0F2A034
:101A460027EF0DF029EF0DF03CEF0DF081A82EEFFA
:101A56000DF030EF0DF03CEF0DF07504D8A436EF25
:101A66000DF038EF0DF03CEF0DF0000E756EEEEC5C
:101A760015F0F2A641EF0DF043EF0DF05DEF0DF01E
:101A8600F2A048EF0DF04AEF0DF05DEF0DF081B8D2
:101A96004FEF0DF051EF0DF05DEF0DF07550D8A43E
:101AA60057EF0DF059EF0DF05DEF0DF0010E756E6D
:101AB600ECEC15F0F2A662EF0DF064EF0DF07EEFA0
:101AC6000DF0F2A069EF0DF06BEF0DF07EEF0DF06B
:101AD60081AA70EF0DF072EF0DF07EEF0DF0740439
:101AE600D8A478EF0DF07AEF0DF07EEF0DF0000E32
:101AF600746EEAEC15F0F2A683EF0DF085EF0DF0AB
:101B06009FEF0DF0F2A08AEF0DF08CEF0DF09FEF36
:101B16000DF081BA91EF0DF093EF0DF09FEF0DF000
:101B26007450D8A499EF0DF09BEF0DF09FEF0DF0D8
:101B3600010E746EE8EC15F0F2A6A4EF0DF0A6EF18
:101B46000DF0C0EF0DF0F2A0ABEF0DF0ADEF0DF024
:101B5600C0EF0DF081ACB2EF0DF0B4EF0DF0C0EFB9
:101B66000DF07304D8A4BAEF0DF0BCEF0DF0C0EF82
:101B76000DF0000E736EE6EC15F0F2A6C5EF0DF053
:101B8600C7EF0DF0E1EF0DF0F2A0CCEF0DF0CEEFC8
:101B96000DF0E1EF0DF081BCD3EF0DF0D5EF0DF0B8
:101BA600E1EF0DF07350D8A4DBEF0DF0DDEF0DF093
:101BB600E1EF0DF0010E736EE4EC15F0F2A6E6EF20
:101BC6000DF0E8EF0DF002EF0EF0F2A0EDEF0DF0E4
:101BD600EFEF0DF002EF0EF081AEF4EF0DF0F6EF41
:101BE6000DF002EF0EF07204D8A4FCEF0DF0FEEF3C
:101BF6000DF002EF0EF0000E726EE2EC15F0F2A69A
:101C060007EF0EF009EF0EF023EF0EF0F2A00EEF45
:101C16000EF010EF0EF023EF0EF081BE15EF0EF072
:101C260017EF0EF023EF0EF07250D8A41DEF0EF052
:101C36001FEF0EF023EF0EF0010E726EE0EC15F0C2
:101C46009DAC28EF0EF02AEF0EF033EF0EF09EACAF
:101C56002FEF0EF031EF0EF033EF0EF0FCEC15F037
:101C6600F2AA38EF0EF03AEF0EF043EF0EF0F2A4C0
:101C76003FEF0EF041EF0EF043EF0EF0D1EC15F012
:101C86009DA048EF0EF04AEF0EF053EF0EF09EA027
:101C96004FEF0EF051EF0EF053EF0EF0CBEC15F0C8
:101CA6009DA258EF0EF05AEF0EF063EF0EF09DA2D4
:101CB6005FEF0EF061EF0EF063EF0EF0DCEC15F067
:101CC600A0A268EF0EF06AEF0EF073EF0EF0A1A27D
:101CD6006FEF0EF071EF0EF073EF0EF0C5EC15F02E
:101CE6009DA478EF0EF07AEF0EF083EF0EF09EA42F
:101CF6007FEF0EF081EF0EF083EF0EF0F8EC15F0AB
:101D0600A0A088EF0EF08AEF0EF093EF0EF0A1A0E0
:101D16008FEF0EF091EF0EF093EF0EF0F6EC15F05C
:101D26009DA898EF0EF09AEF0EF0A3EF0EF09EA886
:101D36009FEF0EF0A1EF0EF0A3EF0EF09DEC15F065
:101D46009DAAA8EF0EF0AAEF0EF0B3EF0EF09EAA32
:101D5600AFEF0EF0B1EF0EF0B3EF0EF0FBEC15F0B7
:101D660002C0FBFF01C0FAFF7D9211001450800BE8
:101D7600216E14501424286E13AEC4EF0EF0C6EF75
:101D86000EF0C7EF0EF028802850D8B4CDEF0EF035
:101D9600CFEF0EF0E4EF0EF02828D8A4D5EF0EF022
:101DA600D7EF0EF0DFEF0EF0000E116E000E126E82
:101DB600000E136E000E146E138E000E146EECEFF2
:101DC6000EF0000E116E000E126E000E136E000E57
:101DD600146E1850800B211A18501824296E17AE4D
:101DE600F7EF0EF0F9EF0EF0FAEF0EF0298029501A
:101DF600D8B400EF0FF002EF0FF017EF0FF029281D
:101E0600D8A408EF0FF00AEF0FF012EF0FF0000E54
:101E1600156E000E166E000E176E000E186E178EDB
:101E2600000E186E1FEF0FF0000E156E000E166EE8
:101E3600000E176E000E186E15501610171018109B
:101E4600D8A428EF0FF02AEF0FF042EF0FF0000EA4
:101E5600116E000E126E000E136E000E146E800EC2
:101E660013127F0E14122150141211C011F012C059
:101E760012F013C013F014C014F085EF10F02850C0
:101E8600D8A448EF0FF04AEF0FF054EF0FF0000E12
:101E9600116E000E126E000E136E000E146E85EF9C
:101EA60010F0295028C019F01A6A195E000E1A5A45
:101EB6007F0E1924226E000E1A20236E11C01DF00B
:101EC60012C01EF013C01FF014C020F0000E116ED9
:101ED600000E126E000E136E000E146E000E246EAF
:101EE600000E256E000E266E000E276E000E296E61
:101EF600B5EF0FF02950D8B483EF0FF085EF0FF050
:101F06009CEF0FF0D8901D361E361F362036D8901F
:101F1600113612361336143627AE94EF0FF096EFBD
:101F26000FF097EF0FF01180D8902436253626361D
:101F3600273615501D5C16501E5817501F5818503E
:101F46002058D8A0A9EF0FF0ABEF0FF0B4EF0FF0C9
:101F5600278C15501D5E16501E5A17501F5A1850C2
:101F6600205A292A190E2964BBEF0FF0BDEF0FF096
:101F76007DEF0FF01D501E101F102010D8B4C6EFB5
:101F86000FF0C8EF0FF0E0EF0FF02480E0EF0FF056
:101F9600D890113612361336143627AED5EF0FF019
:101FA600D7EF0FF0D8EF0FF01180D89024362536F2
:101FB600263627362206D8A0230613AEE5EF0FF005
:101FC600E7EF0FF0CBEF0FF0000E296E27AEEEEF26
:101FD6000FF0F0EF0FF014EF10F0FF0E2414196E4F
:101FE600FF0E25141A6EFF0E26141B6E7F0E271485
:101FF6001C6E19501A101B101C10D8B405EF10F0E7
:1020060007EF10F00BEF10F0010E296E14EF10F031
:1020160011A010EF10F012EF10F014EF10F007EF10
:1020260010F02950D8B41AEF10F01CEF10F040EF62
:1020360010F0010E1126000E12221322142214A0F3
:1020460027EF10F029EF10F040EF10F011C019F053
:1020560012C01AF013C01BF014C01CF01C341C3242
:102066001B321A32193219C011F01AC012F01BC0F5
:1020760013F01CC014F0224A232A23BE4BEF10F0A3
:10208600235008E12228D8A04BEF10F04DEF10F0B6
:1020960058EF10F0000E236E2268000E116E000E2F
:1020A600126E000E136E000E146E23BE65EF10F056
:1020B600235006E12204D8B063EF10F065EF10F06C
:1020C60073EF10F0000E236E000E226E000E116EDE
:1020D600000E126E000E136E000E146E000E216EB0
:1020E60022C028F028A07AEF10F07CEF10F07FEFE6
:1020F60010F0138E80EF10F0139ED8902830146ED7
:1021060036EF0FF012000B6E0B50D8B48DEF10F0B7
:102116008FEF10F0B1EF10F006BE96EF10F094EFCF
:1021260010F0B1EF10F003C007F004C008F005C0CE
:1021360009F006C00AF0071E081E091E0A1E072A15
:10214600000E082209220A2207C00DF008C00EF070
:1021560009C00FF00AC010F0B9EF10F003C00DF07F
:1021660004C00EF005C00FF006C010F003500410B6
:1021760005100610D8A4C2EF10F0C4EF10F0CEEF91
:1021860010F0000E036E000E046E000E056E000EBB
:10219600066E5FEF11F0960E0C6ED8EF10F00C2A5B
:1021A600D89010320F320E320D32000E0D14076E1B
:1021B600000E0E14086E000E0F14096EFE0E10149B
:1021C6000A6E0750081009100A10D8A4EDEF10F097
:1021D600EFEF10F0D2EF10F0FDEF10F00C2A010E29
:1021E6000D26000E0E220F221022D89010320F322A
:1021F6000E320D32000E0D14076E000E0E14086E10
:10220600000E0F14096EFF0E10140A6E0750081008
:1022160009100A10D8A412EF11F014EF11F0F1EF23
:1022260010F01CEF11F00C06D8900D360E360F3656
:1022360010360FBE21EF11F023EF11F02BEF11F046
:10224600020E0C6029EF11F02BEF11F016EF11F0D2
:102256000CB030EF11F032EF11F033EF11F00F9EAA
:10226600D8900C320CC007F0086A096A0A6A07C0DF
:102276000AF0096A086A076A07500D1208500E121A
:1022860009500F120A5010120B50D8B44DEF11F02E
:102296004FEF11F057EF11F006BE56EF11F054EF65
:1022A60011F057EF11F0108E0DC003F00EC004F0C0
:1022B6000FC005F010C006F01200010E0B6E0350A1
:1022C6000410D8B469EF11F06BEF11F08BEF11F039
:1022D60003C0D9FF04C0DAFFDF50070B056E050EF9
:1022E600056078EF11F07AEF11F08BEF11F003C073
:1022F600D9FF04C0DAFFDF30E832E832070B056E9B
:10230600070E056489EF11F08BEF11F0EEEF11F077
:10231600000E0B6E0FEF12F003C0D9FF04C0DAFFF8
:10232600DF30E832E832070B056E010E066E052A2D
:102336009FEF11F0D8900636052E9DEF11F006504E
:10234600FF0A076E03C0D9FF04C0DAFFDF50070B90
:10235600086E0850020DAF0EF324D96E000EF4205D
:10236600DA6EDECF09F0DDCF0AF009C0D9FF0AC068
:10237600DAFF0750DF160FEF12F003C0D9FF04C0D3
:10238600DAFFDF30E832E832070B056E010E066E23
:10239600052AD0EF11F0D8900636052ECEEF11F0B3
:1023A60003C0D9FF04C0DAFFDF50070B076E0750E2
:1023B600020DAF0EF324D96E000EF420DA6EDECFD6
:1023C60008F0DDCF09F008C0D9FF09C0DAFF0650D2
:1023D600DF120FEF12F003C0D9FF04C0DAFFDFBC33
:1023E600F7EF11F0FAEF11F0010EFBEF11F0000E0E
:1023F600056E066A0650000AD8B404EF12F08BEF99
:1024060011F00550000AD8B48FEF11F0010AD8B4C4
:10241600C0EF11F08BEF11F00B501200010E0C6E95
:1024260003500410D8B41AEF12F01CEF12F03CEF70
:1024360012F003C0D9FF04C0DAFFDF50070B066EA7
:10244600050E066029EF12F02BEF12F03CEF12F0AA
:1024560003C0D9FF04C0DAFFDF30E832E832070BE9
:10246600066E070E06643AEF12F03CEF12F09FEF8D
:1024760012F0000E0C6EB4EF12F003C0D9FF04C0C8
:10248600DAFFDF30E832E832070B066E010E076E20
:10249600062A50EF12F0D8900736062E4EEF12F0AD
:1024A6000750FF0A086E03C0D9FF04C0DAFFDF50E9
:1024B600070B096E0950020D9B0EF324D96E000E10
:1024C600F420DA6EDECF0AF0DDCF0BF00AC0D9FFBA
:1024D6000BC0DAFF0850DF16B4EF12F003C0D9FFC5
:1024E60004C0DAFFDF30E832E832070B066E010E71
:1024F600076E062A81EF12F0D8900736062E7FEF78
:1025060012F003C0D9FF04C0DAFFDF50070B086ED4
:102516000850020D9B0EF324D96E000EF420DA6EDD
:10252600DECF09F0DDCF0AF009C0D9FF0AC0DAFF15
:102536000750DF12B4EF12F00550066E076A075017
:10254600000AD8B4A9EF12F03CEF12F00650000AC8
:10255600D8B440EF12F0010AD8B471EF12F03CEF94
:1025660012F00C501200010E056E03500410D8A490
:10257600BFEF12F0C1EF12F0C5EF12F0000E056EBC
:1025860042EF13F020EE08F00350D9260450DA2269
:10259600DFA2D0EF12F0D2EF12F032EF13F0AB88D9
:1025A60020EE08F00350D9260450DA22DFA0DEEF31
:1025B60012F0E0EF12F004EF13F09D9A20EE0CF00B
:1025C6000350D9260450DA22DECFE7F0DDCFE8F05B
:1025D60020EE0EF00350D9260450DA22DECFE5F0C5
:1025E600DDCFE6F020EE10F00350D9260450DA22B3
:1025F600DECFE3F0DDCFE4F0F28EF28C9D8A12EFAF
:1026060013F020EE08F00350D9260450DA22DFB08A
:102616000FEF13F011EF13F012EF13F09D9A20EE67
:1026260008F00350D9260450DA22DFA41DEF13F078
:102636001FEF13F022EF13F0AB8C42EF13F020EEF6
:1026460006F00350D9260450DA22DFB42DEF13F03A
:102656002FEF13F042EF13F0AB9C42EF13F020EE96
:1026660008F00350D9260450DA22DFB23DEF13F00A
:102676003FEF13F042EF13F0AB9842EF13F0055023
:102686001200053406340C6E0C50D8A44DEF13F02E
:102696004FEF13F059EF13F0000E036E000E046EA9
:1026A600000E056E000E066EC6EF13F003C007F0AF
:1026B60004C008F005C009F006C00AF0200E69EF54
:1026C60013F0D8900A32093208320732E82E64EF46
:1026D60013F007500B6E058EFF0E0316FF0E041641
:1026E600FF0E0516000E0616960E0C5E0CBE80EF4B
:1026F60013F07EEF13F096EF13F00C50800A970F4D
:10270600D8B088EF13F08AEF13F08CEF13F04FEF89
:1027160013F0D89006320532043203320C3E8CEFA9
:1027260013F0AEEF13F01F0E0C649CEF13F09EEF48
:1027360013F0A6EF13F04FEF13F0D89003360436DC
:10274600053606360C060C50D8A4ACEF13F0AEEFE7
:1027560013F0A0EF13F00B50D8B4B4EF13F0B6EFAC
:1027660013F0BEEF13F0061E051E041E036C000ECA
:1027760004220522062203C003F004C004F005C0AB
:1027860005F006C006F01200010E056E0350041097
:10279600D8A4D0EF13F0D2EF13F0D6EF13F0000E5B
:1027A600056E3FEF14F020EE06F00350D9260450D4
:1027B600DA22DFA2E1EF13F0E3EF13F02FEF14F0CC
:1027C600AC8A20EE06F00350D9260450DA22DFA0A8
:1027D600EFEF13F0F1EF13F001EF14F09D9820EEF8
:1027E6000AF00350D9260450DA22DECF4AF0DDCFB4
:1027F6004BF0F28EF28C9D880FEF14F020EE06F06F
:102806000350D9260450DA22DFB00CEF14F00EEF95
:1028160014F00FEF14F09D9820EE06F00350D92621
:102826000450DA22DFA41AEF14F01CEF14F01FEFA5
:1028360014F0AC8C3FEF14F020EE06F00350D926CE
:102846000450DA22DFB42AEF14F02CEF14F03FEF35
:1028560014F0AC9C3FEF14F020EE06F00350D9269E
:102866000450DA22DFB23AEF14F03CEF14F03FEFF7
:1028760014F0AC9A3FEF14F0055012000D500E10F4
:10288600D8B448EF14F04AEF14F06AEF14F00DC014
:10289600D9FF0EC0DAFFDF50070B0F6E050E0F6073
:1028A60057EF14F059EF14F06AEF14F00DC0D9FF8A
:1028B6000EC0DAFFDF30E832E832070B0F6E070E84
:1028C6000F6468EF14F06AEF14F06EEF14F0000E68
:1028D600106E84EF14F00DC003F00EC004F060EC2F
:1028E60011F0106E0DC003F00EC004F00DC0D9FF3C
:1028F6000EC0DAFF000EDFBE010E056E11EC12F0FF
:10290600106E10501200010E146E11501210D8A441
:102916008FEF14F091EF14F095EF14F0000E146E93
:10292600C4EF14F06FC015F011C0D9FF12C0DAFF62
:10293600DF50070B136E15501318F80B1318156E8E
:1029460011C0D9FF12C0DAFFDF30E832E832070BD8
:10295600136E13461346134615501318C70B131858
:10296600156E159C11C0D9FF12C0DAFFDFAC02D07C
:10297600158E01D0159E150E0D6E000E0E6E41ECD5
:1029860014F014501200B4EC15F0D10E036E000EC4
:10299600046E610E056E83EC15F07C6E0B0E000165
:1029A600FA6F260EF96F5D0EE82EFED7F92FFCD7CB
:1029B600FA2FFAD700D0D10E036E000E046E630E06
:1029C600056E83EC15F07C6E0B0E0001FA6F260E79
:1029D600F96F5D0EE82EFED7F92FFCD7FA2FFAD73E
:1029E60000D0C8EF14F007EF00F03738392534353A
:1029F60036783132332D26303D2B323A08030B130D
:102A06001B232B333B890F8A0F8B0F8C0F8D0F8067
:102A16000F810F820F830F840F920F930F940F95E0
:102A26000F960F020A121A626A727A02120A1A22A2
:102A36002A32020A121A01131B030B802500000218
:0D2A46000002000200F42B00000000000060
:102A5400F00EF66E290EF76E000EF86E00EE80F0A2
:102A640010EE63F00900F5CFEEFFE550E150FAE116
:102A7400AE0EF66E2B0EF76E000EF86E00EE72F0D0
:102A840010EE0AF00900F5CFEEFFE550E150FAE14F
:102A940000EEE3F0160EEE6AE806FDE100EE4AF001
:102AA400280EEE6AE806FDE17D907D920001C6EFF6
:102AB40014F047504810D8A462EF15F064EF15F0F5
:102AC40068EF15F0000E496E81EF15F0AB9E948C03
:102AD400948E47C03AF048C03BF003EC08F0496ECE
:102AE40047C003F048C004F0C7EC13F0496E47C078
:102AF40003F048C004F0B6EC12F0496EAB8E4950B6
:102B04001200010E066E03500410D8A48CEF15F0C9
:102B14008EEF15F092EF15F0000E066E9BEF15F098
:102B2400ACA297EF15F099EF15F092EF15F005C0F0
:102B3400ADFF065012009D984A504B10D8B4A5EF33
:102B440015F0A7EF15F0B3EF15F002D8B3EF15F0B9
:102B54000500FA6E4A50FD6E4B50FE6EFF6AFA5045
:102B640012001200BEEC15F0D10E476E000E486E36
:102B74005BEC15F07C6E12007B0E116E000E126E73
:102B840086EC14F01200A1924D50B36E4CC0B2FF0B
:102B940012009E904F50CF6E4EC0CEFF1200F294A2
:102BA4005150D76E50C0D6FF1200010101010B0332
:102BB40003920A029E9268C0CCFF1200F2901200A7
:102BC400F2901200F2901200F2901200F2901200B1
:102BD400F2901200F2901200F2901200F0921200A1
:102BE400F0901200F2921200A19012009E94120032
:062BF400120012001200A5
:020000040020DA
:08000000FFFFFFFFFFFFFFFF00
:020000040030CA
:0E000000FF02091EFF8181FF0FC00FE00F40BD
:00000001FF
