:020000040000FA
:0400000007EF00F016
:0A0008007D82EEED0CF026EF16F0FD
:10100000004C4544204F46460D004C4544204F4E71
:101010000D0025690000010E3E6E3A503B10D8A429
:1010200014EF08F016EF08F01AEF08F0000E3E6E0D
:101030008CEF0AF0000E3F6E000E406E000E416E07
:10104000000E426E42EF0AF0AC98B896AC943AC0EB
:10105000D9FF3BC0DAFFDECF03F0DECF04F0DECFF6
:1010600005F0DECF06F0000E8EEC10F003C015F098
:1010700004C016F005C017F006C018F0000E116E7F
:10108000240E126EF40E136E4A0E146EC1EC0EF0A6
:1010900011C043F012C044F013C045F014C046F034
:1010A000000E156E000E166E800E176E420E186E34
:1010B00043C011F044C012F045C013F046C014F014
:1010C000C1EC0EF011C02AF012C02BF013C02CF0AE
:1010D00014C02DF0000E2E6E000E2F6E800E306E9E
:1010E000BF0E316E8EEC0AF02AC03FF02BC040F0EC
:1010F0002CC041F02DC042F06DEF0AF0AC98B896CC
:10110000AC843AC0D9FF3BC0DAFFDECF03F0DECFBC
:1011100004F0DECF05F0DECF06F0000E8EEC10F00E
:1011200003C015F004C016F005C017F006C018F093
:10113000000E116E240E126EF40E136E4A0E146E13
:10114000C1EC0EF011C043F012C044F013C045F0E2
:1011500014C046F0000E156E000E166E800E176E4F
:10116000410E186E43C011F044C012F045C013F098
:1011700046C014F0C1EC0EF011C02AF012C02BF0E2
:1011800013C02CF014C02DF0000E2E6E000E2F6E2A
:10119000800E306EBF0E316E8EEC0AF02AC03FF02A
:1011A0002BC040F02CC041F02DC042F06DEF0AF092
:1011B000AC98B886AC943AC0D9FF3BC0DAFFDECF1A
:1011C00003F0DECF04F0DECF05F0DECF06F0000E38
:1011D0008EEC10F003C015F004C016F005C017F037
:1011E00006C018F0000E116E240E126EF40E136E6F
:1011F0004A0E146EC1EC0EF011C043F012C044F060
:1012000013C045F014C046F0000E156E000E166EA9
:10121000800E176E410E186E43C011F044C012F0DC
:1012200045C013F046C014F0C1EC0EF011C02AF016
:1012300012C02BF013C02CF014C02DF0000E2E6E37
:10124000000E2F6E800E306EBF0E316E8EEC0AF0E7
:101250002AC03FF02BC040F02CC041F02DC042F01E
:101260006DEF0AF0AC98B886AC843AC0D9FF3BC0A9
:10127000DAFFDECF03F0DECF04F0DECF05F0DECF05
:1012800006F0000E8EEC10F003C015F004C016F04E
:1012900005C017F006C018F0000E116E240E126E75
:1012A000F40E136E4A0E146EC1EC0EF011C043F032
:1012B00012C044F013C045F014C046F0000E156E85
:1012C000000E166E800E176E400E186E43C011F0A1
:1012D00044C012F045C013F046C014F0C1EC0EF04B
:1012E00011C02AF012C02BF013C02CF014C02DF046
:1012F000000E2E6E000E2F6E800E306EBF0E316E01
:101300008EEC0AF02AC03FF02BC040F02CC041F018
:101310002DC042F06DEF0AF0AC98B8963AC0D9FFF4
:101320003BC0DAFFDECF03F0DECF04F0DECF05F006
:10133000DECF06F0000E8EEC10F003C015F004C0F6
:1013400016F005C017F006C018F0000E116E240E3E
:10135000126EF40E136E4A0E146EC1EC0EF011C034
:1013600043F012C044F013C045F014C046F0000E24
:10137000156E000E166E800E176E400E186E43C06E
:1013800011F044C012F045C013F046C014F0C1EC97
:101390000EF011C02AF012C02BF013C02CF014C0B4
:1013A0002DF0000E2E6E000E2F6E800E306EBF0ED2
:1013B000316E8EEC0AF02AC03FF02BC040F02CC0FA
:1013C00041F02DC042F06DEF0AF0AC98B8863AC0FB
:1013D000D9FF3BC0DAFFDECF03F0DECF04F0DECF73
:1013E00005F0DECF06F0000E8EEC10F003C015F015
:1013F00004C016F005C017F006C018F0000E116EFC
:10140000240E126EF40E136E4A0E146EC1EC0EF022
:1014100011C043F012C044F013C045F014C046F0B0
:10142000000E156E000E166E800E176E400E186EB2
:1014300043C011F044C012F045C013F046C014F090
:10144000C1EC0EF011C02AF012C02BF013C02CF02A
:1014500014C02DF0000E2E6E000E2F6E800E306E1A
:10146000BF0E316E8EEC0AF02AC03FF02BC040F068
:101470002CC041F02DC042F06DEF0AF0000E3E6E20
:101480006DEF0AF020EE04F03A50D9263B50DA22F4
:10149000DF503C6E3D6A3D50000AD8B452EF0AF06E
:1014A0003EEF0AF03C50000AD8B424EF08F0010ADD
:1014B000D8B47EEF08F0030AD8B4D8EF08F0010AD8
:1014C000D8B432EF09F0070AD8B48CEF09F0010A5A
:1014D000D8B4E5EF09F03EEF0AF03FC003F040C09A
:1014E00004F041C005F042C006F04CEC13F003508C
:1014F000AF6E3FC003F040C004F041C005F042C0F1
:1015000006F04CEC13F004C003F005C004F006C074
:1015100005F0066A0350B06E3E5012002D50800B4D
:10152000366E2D502D24386E2CAE99EF0AF09BEFBD
:101530000AF09CEF0AF038803850D8B4A2EF0AF0D5
:10154000A4EF0AF0B9EF0AF03828D8A4AAEF0AF0FD
:10155000ACEF0AF0B4EF0AF0000E2A6E000E2B6E0C
:10156000000E2C6E000E2D6E2C8E000E2D6EC1EF17
:101570000AF0000E2A6E000E2B6E000E2C6E000E6E
:101580002D6E3150800B376E36503718D8B4CBEFF4
:101590000AF0CDEF0AF0CEEF0AF0368C315031244C
:1015A000376E30AED6EF0AF0D8EF0AF0D9EF0AF076
:1015B00037803750D8B4DFEF0AF0E1EF0AF0F6EFEA
:1015C0000AF03728D8A4E7EF0AF0E9EF0AF0F1EFC4
:1015D0000AF0000E2E6E000E2F6E000E306E000E02
:1015E000316E308E000E316EFEEF0AF0000E2E6E60
:1015F000000E2F6E000E306E000E316E3850375CCC
:10160000D8B005EF0BF007EF0BF02EEF0BF036AC78
:101610000CEF0BF00EEF0BF010EF0BF0800E361A04
:1016200038C039F037C038F039C037F02AC039F047
:101630002EC02AF039C02EF02BC039F02FC02BF06D
:1016400039C02FF02CC039F030C02CF039C030F048
:101650002DC039F031C02DF039C031F0000E396E97
:10166000385037C032F0336A325E000E335A33BE20
:1016700043EF0BF0335009E11A0E325CD8A043EF70
:101680000BF045EF0BF07CEF0BF02A502B102C10D9
:101690002D10D8A44EEF0BF051EF0BF0010E52EFCE
:1016A0000BF0000E396E000E2A6E000E2B6E000E2F
:1016B0002C6E000E2D6E37C038F085EF0BF039A080
:1016C00064EF0BF066EF0BF06CEF0BF0D890393055
:1016D0000109396E6EEF0BF0D89039322AA073EF02
:1016E0000BF075EF0BF076EF0BF0398E2D342D32B9
:1016F0002C322B322A32382A3750385CD8A083EF6C
:101700000BF085EF0BF05FEF0BF036BC8AEF0BF0C0
:101710008CEF0BF0CCEF0BF03850D8A492EF0BF01D
:1017200094EF0BF09EEF0BF0000E2A6E000E2B6E66
:10173000000E2C6E000E2D6EEDEF0CF02E502A26B2
:101740002F502B2230502C2231502D222DA0ABEFC8
:101750000BF0ADEF0BF059EF0CF039A0B2EF0BF03E
:10176000B4EF0BF0BAEF0BF0D89039300109396EB5
:10177000BCEF0BF0D89039322AA0C1EF0BF0C3EFC9
:101780000BF0C4EF0BF0398E2D342D322C322B326E
:101790002A32382A59EF0CF02E502A5C2F502B5841
:1017A00030502C582D50800A326E3150800A3258F9
:1017B000D8B0DDEF0BF0DFEF0BF00AEF0CF02A50A2
:1017C0002E5C326E2B502F58336E2C503058346EA6
:1017D0002D503158356EFF0E32242A6EFF0E332005
:1017E0002B6EFF0E34202C6EFF0E35202D6E800EDA
:1017F000361A396C3950D8A400EF0CF002EF0CF017
:1018000012EF0CF0010E2A26000E2B222C222D2284
:1018100012EF0CF02E502A5E2F502B5A30502C5ABB
:1018200031502D5A2A502B102C102D10D8A41BEFFC
:101830000CF01DEF0CF052EF0CF03950D8A423EF50
:101840000CF025EF0CF052EF0CF0000E2A6E000E9B
:101850002B6E000E2C6E000E2D6EEDEF0CF0D8905E
:101860002A362B362C362D3639AE39EF0CF03BEFBD
:101870000CF03CEF0CF02A8039A041EF0CF043EF64
:101880000CF047EF0CF0D880393649EF0CF0D890C7
:1018900039363850D8B44FEF0CF051EF0CF052EF0E
:1018A0000CF038062CAE57EF0CF059EF0CF02FEF80
:1018B0000CF0000E376E39AE60EF0CF062EF0CF0FA
:1018C0007AEF0CF039C032F07F0E3216D8B46BEFDD
:1018D0000CF06DEF0CF071EF0CF0010E376E7AEF3B
:1018E0000CF02AA076EF0CF078EF0CF07AEF0CF009
:1018F0006DEF0CF03750D8B480EF0CF082EF0CF0A5
:10190000ADEF0CF0010E2A26000E2B222C222D22E8
:101910002DA08DEF0CF08FEF0CF0ADEF0CF02AC086
:1019200032F02BC033F02CC034F02DC035F03534FC
:10193000353234323332323232C02AF033C02BF0F7
:1019400034C02CF035C02DF03828D8B4AAEF0CF0F4
:10195000ACEF0CF0ADEF0CF0382A3828D8B4B3EF68
:101960000CF0B5EF0CF0BDEF0CF03850D8A4BBEF85
:101970000CF0BDEF0CF0CFEF0CF0000E2A6E000E55
:101980002B6E000E2C6E000E2D6E3850D8A4CBEFAF
:101990000CF0CDEF0CF0CFEF0CF0000E366E38A04F
:1019A000D4EF0CF0D6EF0CF0D9EF0CF02C8EDAEF70
:1019B0000CF02C9ED89038302D6E36AEE2EF0CF045
:1019C000E4EF0CF0E5EF0CF02D8E2AC02AF02BC0CE
:1019D0002BF02CC02CF02DC02DF012000600FACFF9
:1019E00001F0FBCF02F0F2A8F8EF0CF0FAEF0CF0E8
:1019F00003EF0DF0F2A2FFEF0CF001EF0DF003EF9B
:101A00000DF01AEC17F0F0A608EF0DF00AEF0DF04C
:101A100013EF0DF0F0A00FEF0DF011EF0DF013EF3D
:101A20000DF018EC17F0F0A818EF0DF01AEF0DF00C
:101A300023EF0DF0F0A21FEF0DF021EF0DF023EFDB
:101A40000DF016EC17F0F2A628EF0DF02AEF0DF0CE
:101A500044EF0DF0F2A02FEF0DF031EF0DF044EF59
:101A60000DF081A836EF0DF038EF0DF044EF0DF0DA
:101A70007604D8A43EEF0DF040EF0DF044EF0DF0EA
:101A8000000E766E14EC17F0F2A649EF0DF04BEF56
:101A90000DF065EF0DF0F2A050EF0DF052EF0DF0EC
:101AA00065EF0DF081B857EF0DF059EF0DF065EFD0
:101AB0000DF07650D8A45FEF0DF061EF0DF065EFFB
:101AC0000DF0010E766E12EC17F0F2A66AEF0DF033
:101AD0006CEF0DF086EF0DF0F2A071EF0DF073EFEB
:101AE0000DF086EF0DF081AA78EF0DF07AEF0DF092
:101AF00086EF0DF07504D8A480EF0DF082EF0DF0A5
:101B000086EF0DF0000E756E10EC17F0F2A68BEF5D
:101B10000DF08DEF0DF0A7EF0DF0F2A092EF0DF0AC
:101B200094EF0DF0A7EF0DF081BA99EF0DF09BEF58
:101B30000DF0A7EF0DF07550D8A4A1EF0DF0A3EFB5
:101B40000DF0A7EF0DF0010E756E0EEC17F0F2A67A
:101B5000ACEF0DF0AEEF0DF0C8EF0DF0F2A0B3EF6B
:101B60000DF0B5EF0DF0C8EF0DF081ACBAEF0DF050
:101B7000BCEF0DF0C8EF0DF07404D8A4C2EF0DF067
:101B8000C4EF0DF0C8EF0DF0000E746E0CEC17F002
:101B9000F2A6CDEF0DF0CFEF0DF0E9EF0DF0F2A0D2
:101BA000D4EF0DF0D6EF0DF0E9EF0DF081BCDBEFD7
:101BB0000DF0DDEF0DF0E9EF0DF07450D8A4E3EF78
:101BC0000DF0E5EF0DF0E9EF0DF0010E746E0AEC8B
:101BD00017F0F2A6EEEF0DF0F0EF0DF00AEF0EF0B9
:101BE000F2A0F5EF0DF0F7EF0DF00AEF0EF081AE79
:101BF000FCEF0DF0FEEF0DF00AEF0EF07304D8A429
:101C000004EF0EF006EF0EF00AEF0EF0000E736E0A
:101C100008EC17F0F2A60FEF0EF011EF0EF02BEF1D
:101C20000EF0F2A016EF0EF018EF0EF02BEF0EF004
:101C300081BE1DEF0EF01FEF0EF02BEF0EF0735074
:101C4000D8A425EF0EF027EF0EF02BEF0EF0010ECB
:101C5000736E06EC17F09DAC30EF0EF032EF0EF025
:101C60003BEF0EF09EAC37EF0EF039EF0EF03BEF8E
:101C70000EF022EC17F0F2AA40EF0EF042EF0EF059
:101C80004BEF0EF0F2A447EF0EF049EF0EF04BEFE2
:101C90000EF0F7EC16F09DA050EF0EF052EF0EF0A4
:101CA0005BEF0EF09EA057EF0EF059EF0EF05BEFDA
:101CB0000EF0F1EC16F09DA260EF0EF062EF0EF068
:101CC0006BEF0EF09DA267EF0EF069EF0EF06BEF79
:101CD0000EF002EC17F0A0A270EF0EF072EF0EF013
:101CE0007BEF0EF0A1A277EF0EF079EF0EF07BEF15
:101CF0000EF0EBEC16F09DA480EF0EF082EF0EF0EC
:101D00008BEF0EF09EA487EF0EF089EF0EF08BEFB5
:101D10000EF01EEC17F0A0A090EF0EF092EF0EF078
:101D20009BEF0EF0A1A097EF0EF099EF0EF09BEF56
:101D30000EF01CEC17F09DA8A0EF0EF0A2EF0EF035
:101D4000ABEF0EF09EA8A7EF0EF0A9EF0EF0ABEFF1
:101D50000EF0C1EC16F09DAAB0EF0EF0B2EF0EF04F
:101D6000BBEF0EF09EAAB7EF0EF0B9EF0EF0BBEF8F
:101D70000EF021EC17F002C0FBFF01C0FAFF7D92CC
:101D800011001450800B216E14501424286E13AED1
:101D9000CCEF0EF0CEEF0EF0CFEF0EF028802850F3
:101DA000D8B4D5EF0EF0D7EF0EF0ECEF0EF02828F8
:101DB000D8A4DDEF0EF0DFEF0EF0E7EF0EF0000E2F
:101DC000116E000E126E000E136E000E146E138E46
:101DD000000E146EF4EF0EF0000E116E000E126E77
:101DE000000E136E000E146E1850800B211A18503E
:101DF0001824296E17AEFFEF0EF001EF0FF002EF7F
:101E00000FF029802950D8B408EF0FF00AEF0FF037
:101E10001FEF0FF02928D8A410EF0FF012EF0FF0EA
:101E20001AEF0FF0000E156E000E166E000E176EF4
:101E3000000E186E178E000E186E27EF0FF0000EB2
:101E4000156E000E166E000E176E000E186E1550F1
:101E5000161017101810D8A430EF0FF032EF0FF053
:101E60004AEF0FF0000E116E000E126E000E136E90
:101E7000000E146E800E13127F0E141221501412D5
:101E800011C011F012C012F013C013F014C014F0FE
:101E90008DEF10F02850D8A450EF0FF052EF0FF054
:101EA0005CEF0FF0000E116E000E126E000E136E3E
:101EB000000E146E8DEF10F0295028C019F01A6A28
:101EC000195E000E1A5A7F0E1924226E000E1A2077
:101ED000236E11C01DF012C01EF013C01FF014C0FD
:101EE00020F0000E116E000E126E000E136E000E2A
:101EF000146E000E246E000E256E000E266E000E6F
:101F0000276E000E296EBDEF0FF02950D8B48BEF6D
:101F10000FF08DEF0FF0A4EF0FF0D8901D361E36A6
:101F20001F362036D890113612361336143627AEA7
:101F30009CEF0FF09EEF0FF09FEF0FF01180D89005
:101F4000243625362636273615501D5C16501E5869
:101F500017501F5818502058D8A0B1EF0FF0B3EF0A
:101F60000FF0BCEF0FF0278C15501D5E16501E5A57
:101F700017501F5A1850205A292A190E2964C3EFE6
:101F80000FF0C5EF0FF085EF0FF01D501E101F1062
:101F90002010D8B4CEEF0FF0D0EF0FF0E8EF0FF035
:101FA0002480E8EF0FF0D89011361236133614362D
:101FB00027AEDDEF0FF0DFEF0FF0E0EF0FF0118055
:101FC000D89024362536263627362206D8A0230672
:101FD00013AEEDEF0FF0EFEF0FF0D3EF0FF0000EB9
:101FE000296E27AEF6EF0FF0F8EF0FF01CEF10F0B0
:101FF000FF0E2414196EFF0E25141A6EFF0E261400
:102000001B6E7F0E27141C6E19501A101B101C100B
:10201000D8B40DEF10F00FEF10F013EF10F0010E29
:10202000296E1CEF10F011A018EF10F01AEF10F04D
:102030001CEF10F00FEF10F02950D8B422EF10F081
:1020400024EF10F048EF10F0010E1126000E1222BE
:102050001322142214A02FEF10F031EF10F048EFEC
:1020600010F011C019F012C01AF013C01BF014C008
:102070001CF01C341C321B321A32193219C011F0F8
:102080001AC012F01BC013F01CC014F0224A232AFD
:1020900023BE53EF10F0235008E12228D8A053EFBD
:1020A00010F055EF10F060EF10F0000E236E226874
:1020B000000E116E000E126E000E136E000E146EE6
:1020C00023BE6DEF10F0235006E12204D8B06BEF71
:1020D00010F06DEF10F07BEF10F0000E236E000E8D
:1020E000226E000E116E000E126E000E136E000EA8
:1020F000146E000E216E22C028F028A082EF10F08E
:1021000084EF10F087EF10F0138E88EF10F0139E1D
:10211000D8902830146E3EEF0FF012000B6E0B506B
:10212000D8B495EF10F097EF10F0B9EF10F006BEAD
:102130009EEF10F09CEF10F0B9EF10F003C007F025
:1021400004C008F005C009F006C00AF0071E081E0A
:10215000091E0A1E072A000E082209220A2207C0A9
:102160000DF008C00EF009C00FF00AC010F0C1EF6A
:1021700010F003C00DF004C00EF005C00FF006C053
:1021800010F00350041005100610D8A4CAEF10F088
:10219000CCEF10F0D6EF10F0000E036E000E046EC0
:1021A000000E056E000E066E67EF11F0960E0C6EB7
:1021B000E0EF10F00C2AD89010320F320E320D32B0
:1021C000000E0D14076E000E0E14086E000E0F1494
:1021D000096EFE0E10140A6E0750081009100A103E
:1021E000D8A4F5EF10F0F7EF10F0DAEF10F005EFEC
:1021F00011F00C2A010E0D26000E0E220F221022C5
:10220000D89010320F320E320D32000E0D14076EC0
:10221000000E0E14086E000E0F14096EFF0E10143F
:102220000A6E0750081009100A10D8A41AEF11F00E
:102230001CEF11F0F9EF10F024EF11F00C06D8901C
:102240000D360E360F3610360FBE29EF11F02BEF7C
:1022500011F033EF11F0020E0C6031EF11F033EF9B
:1022600011F01EEF11F00CB038EF11F03AEF11F051
:102270003BEF11F00F9ED8900C320CC007F0086AAB
:10228000096A0A6A07C00AF0096A086A076A0750F9
:102290000D1208500E1209500F120A5010120B5056
:1022A000D8B455EF11F057EF11F05FEF11F006BE03
:1022B0005EEF11F05CEF11F05FEF11F0108E0DC0CA
:1022C00003F00EC004F00FC005F010C006F01200BD
:1022D000010E0B6E03500410D8B471EF11F073EFC0
:1022E00011F093EF11F003C0D9FF04C0DAFFDF5003
:1022F000070B056E050E056080EF11F082EF11F0FF
:1023000093EF11F003C0D9FF04C0DAFFDF30E832E9
:10231000E832070B056E070E056491EF11F093EF9D
:1023200011F0F6EF11F0000E0B6E17EF12F003C074
:10233000D9FF04C0DAFFDF30E832E832070B056E60
:10234000010E066E052AA7EF11F0D8900636052E6D
:10235000A5EF11F00650FF0A076E03C0D9FF04C0B5
:10236000DAFFDF50070B086E0850020DAF0EF324A2
:10237000D96E000EF420DA6EDECF09F0DDCF0AF060
:1023800009C0D9FF0AC0DAFF0750DF1617EF12F0B5
:1023900003C0D9FF04C0DAFFDF30E832E832070BB0
:1023A000056E010E066E052AD8EF11F0D89006369C
:1023B000052ED6EF11F003C0D9FF04C0DAFFDF50BD
:1023C000070B076E0750020DAF0EF324D96E000EF7
:1023D000F420DA6EDECF08F0DDCF09F008C0D9FFB7
:1023E00009C0DAFF0650DF1217EF12F003C0D9FF61
:1023F00004C0DAFFDFBCFFEF11F002EF12F0010EB4
:1024000003EF12F0000E056E066A0650000AD8B4FB
:102410000CEF12F093EF11F00550000AD8B497EFCB
:1024200011F0010AD8B4C8EF11F093EF11F00B507E
:102430001200010E0C6E03500410D8B422EF12F0FB
:1024400024EF12F044EF12F003C0D9FF04C0DAFF0A
:10245000DF50070B066E050E066031EF12F033EF0A
:1024600012F044EF12F003C0D9FF04C0DAFFDF30EE
:10247000E832E832070B066E070E066442EF12F0F0
:1024800044EF12F0A7EF12F0000E0C6EBCEF12F04A
:1024900003C0D9FF04C0DAFFDF30E832E832070BAF
:1024A000066E010E076E062A58EF12F0D890073616
:1024B000062E56EF12F00750FF0A086E03C0D9FF30
:1024C00004C0DAFFDF50070B096E0950020D9B0EA6
:1024D000F324D96E000EF420DA6EDECF0AF0DDCFE1
:1024E0000BF00AC0D9FF0BC0DAFF0850DF16BCEFB3
:1024F00012F003C0D9FF04C0DAFFDF30E832E8325F
:10250000070B066E010E076E062A89EF12F0D890AF
:102510000736062E87EF12F003C0D9FF04C0DAFF9A
:10252000DF50070B086E0850020D9B0EF324D96E86
:10253000000EF420DA6EDECF09F0DDCF0AF009C01C
:10254000D9FF0AC0DAFF0750DF12BCEF12F00550C6
:10255000066E076A0750000AD8B4B1EF12F044EFD4
:1025600012F00650000AD8B448EF12F0010AD8B4AD
:1025700079EF12F044EF12F00C501200010E056ECC
:1025800003500410D8A4C7EF12F0C9EF12F0CDEF3A
:1025900012F0000E056E4AEF13F020EE08F0035023
:1025A000D9260450DA22DFA2D8EF12F0DAEF12F0C7
:1025B0003AEF13F0AB8820EE08F00350D926045010
:1025C000DA22DFA0E6EF12F0E8EF12F00CEF13F0E2
:1025D0009D9A20EE0CF00350D9260450DA22DECF6B
:1025E000E7F0DDCFE8F020EE0EF00350D9260450DE
:1025F000DA22DECFE5F0DDCFE6F020EE10F003507A
:10260000D9260450DA22DECFE3F0DDCFE4F0F28EFB
:10261000F28C9D8A1AEF13F020EE08F00350D926B1
:102620000450DA22DFB017EF13F019EF13F01AEFAE
:1026300013F09D9A20EE08F00350D9260450DA22B8
:10264000DFA425EF13F027EF13F02AEF13F0AB8C84
:102650004AEF13F020EE06F00350D9260450DA2298
:10266000DFB435EF13F037EF13F04AEF13F0AB9C04
:102670004AEF13F020EE08F00350D9260450DA2276
:10268000DFB245EF13F047EF13F04AEF13F0AB98CA
:102690004AEF13F005501200053406340C6E0C504E
:1026A000D8A455EF13F057EF13F061EF13F0000EBD
:1026B000036E000E046E000E056E000E066ECEEF69
:1026C00013F003C007F004C008F005C009F006C00D
:1026D0000AF0200E71EF13F0D8900A320932083256
:1026E0000732E82E6CEF13F007500B6E058EFF0ECD
:1026F0000316FF0E0416FF0E0516000E0616960EA4
:102700000C5E0CBE88EF13F086EF13F09EEF13F013
:102710000C50800A970FD8B090EF13F092EF13F09F
:1027200094EF13F057EF13F0D890063205320432CD
:1027300003320C3E94EF13F0B6EF13F01F0E0C644F
:10274000A4EF13F0A6EF13F0AEEF13F057EF13F072
:10275000D89003360436053606360C060C50D8A43D
:10276000B4EF13F0B6EF13F0A8EF13F00B50D8B49A
:10277000BCEF13F0BEEF13F0C6EF13F0061E051EFC
:10278000041E036C000E04220522062203C003F07F
:1027900004C004F005C005F006C006F01200010EEA
:1027A000056E03500410D8A4D8EF13F0DAEF13F03D
:1027B000DEEF13F0000E056E47EF14F020EE06F08A
:1027C0000350D9260450DA22DFA2E9EF13F0EBEF31
:1027D00013F037EF14F0AC8A20EE06F00350D92640
:1027E0000450DA22DFA0F7EF13F0F9EF13F009EF4E
:1027F00014F09D9820EE0AF00350D9260450DA22F6
:10280000DECF48F0DDCF49F0F28EF28C9D8817EFD5
:1028100014F020EE06F00350D9260450DA22DFB07F
:1028200014EF14F016EF14F017EF14F09D9820EE4B
:1028300006F00350D9260450DA22DFA422EF14F068
:1028400024EF14F027EF14F0AC8C47EF14F020EED7
:1028500006F00350D9260450DA22DFB432EF14F028
:1028600034EF14F047EF14F0AC9C47EF14F020EE77
:1028700006F00350D9260450DA22DFB242EF14F0FA
:1028800044EF14F047EF14F0AC9A47EF14F0055002
:102890001200D8EC16F0D10E036E000E046E720E0C
:1028A000056E000E066E80EC16F00001F96FF9055A
:1028B000D8A45DEF14F05FEF14F04BEF14F0610E4D
:1028C0007218D8A466EF14F068EF14F082EF14F0D9
:1028D0007C0E0D6E000E0E6EEEEC14F00001F96F22
:1028E000D10E076E000E086E0A0E096E100E0A6EEB
:1028F000000E0C6E070E0B6E72EC15F00001F96FF6
:102900004BEF14F0630E7218D8A489EF14F08BEF1C
:1029100014F0A5EF14F07C0E0D6E000E0E6E30EC70
:1029200015F00001F96FD10E076E000E086E010E52
:10293000096E100E0A6E000E0C6E080E0B6E72EC15
:1029400015F00001F96F4BEF14F04BEF14F007EFA7
:1029500000F00D500E10D8B4B0EF14F0B2EF14F038
:10296000D2EF14F00DC0D9FF0EC0DAFFDF50070B15
:102970000F6E050E0F60BFEF14F0C1EF14F0D2EF31
:1029800014F00DC0D9FF0EC0DAFFDF30E832E832B4
:10299000070B0F6E070E0F64D0EF14F0D2EF14F098
:1029A000D6EF14F0000E106EECEF14F00DC003F033
:1029B0000EC004F068EC11F0106E0DC003F00EC0F4
:1029C00004F00DC0D9FF0EC0DAFF000EDFBE010E0D
:1029D000056E19EC12F0106E10501200010E106E00
:1029E0000D500E10D8A4F7EF14F0F9EF14F0FDEF2E
:1029F00014F0000E106E2EEF15F06EC011F00DC029
:102A0000D9FF0EC0DAFFDF50070B0F6E11500F1801
:102A1000F80B0F18116E0DC0D9FF0EC0DAFFDF30B2
:102A2000E832E832070B0F6E0F460F460F46115083
:102A30000F18C70B0F18116E119C0DC0D9FF0EC0D7
:102A4000DAFFDFAC02D0118E01D0119E110E036EA1
:102A5000000E046E010E056E19EC12F010501200FB
:102A6000010E106E0D500E10D8A439EF15F03BEF8B
:102A700015F03FEF15F0000E106E70EF15F06DC001
:102A800011F00DC0D9FF0EC0DAFFDF50070B0F6E3B
:102A900011500F18F80B0F18116E0DC0D9FF0EC092
:102AA000DAFFDF30E832E832070B0F6E0F460F46D1
:102AB0000F4611500F18C70B0F18116E119C0DC047
:102AC000D9FF0EC0DAFFDFAC02D0118E01D0119E0B
:102AD000110E036E000E046E000E056E19EC12F05E
:102AE00010501200010E0F6E07500810D8B47BEF83
:102AF00015F07DEF15F086EF15F009500A10D8A4F7
:102B000084EF15F086EF15F08AEF15F0000E0F6ECA
:102B1000B2EF15F0000E106EA4EF15F007C003F031
:102B200008C004F0105009240D6E000E0A200E6E2D
:102B30000DC0F6FF0EC0F7FFF86A0800F5CF05F0EC
:102B4000A7EC16F00F6E102A10500D6E0E6A0B5087
:102B50000D5C0C500E58D8A0B0EF15F0B2EF15F088
:102B60008EEF15F00F501200010E146E115012105E
:102B7000D8A4BDEF15F0BFEF15F0C3EF15F0000EB0
:102B8000146EF2EF15F06FC015F011C0D9FF12C02E
:102B9000DAFFDF50070B136E15501318F80B1318DC
:102BA000156E11C0D9FF12C0DAFFDF30E832E8320B
:102BB000070B136E13461346134615501318C70B15
:102BC0001318156E159C11C0D9FF12C0DAFFDFACC7
:102BD00002D0158E01D0159E150E0D6E000E0E6ED4
:102BE000A9EC14F0145012003738392534353678F2
:102BF0003132332D26303D2B323A08030B131B2381
:102C00002B333B890F8A0F8B0F8C0F8D0F800F8119
:102C10000F820F830F840F920F930F940F950F96CF
:102C20000F020A121A626A727A02120A1A222A32EF
:102C3000020A121A01131B030B8025000002000276
:0B2C4000000200402E00000000000019
:102C4C00E80EF66E2B0EF76E000EF86E00EE80F0AE
:102C5C0010EE63F00900F5CFEEFFE550E150FAE11C
:102C6C00FA0EF66E2D0EF76E000EF86E00EE73F087
:102C7C0010EE0AF00900F5CFEEFFE550E150FAE155
:102C8C0000EEE3F0140EEE6AE806FDE100EE48F00B
:102C9C002B0EEE6AE806FDE17D907D92000149EF76
:102CAC0014F00001F751F811D8A45FEF16F061EFA2
:102CBC0016F065EF16F0000E476E7EEF16F0AB9E29
:102CCC00948C948EF7C03AF0F8C03BF00BEC08F003
:102CDC00476EF7C003F0F8C004F0CFEC13F0476E6A
:102CEC00F7C003F0F8C004F0BEEC12F0476EAB8EE8
:102CFC004750120003500410D8B487EF16F089EF38
:102D0C0016F092EF16F005500610D8A490EF16F0BE
:102D1C0092EF16F096EF16F0000E076EA5EF16F078
:102D2C009EAA9BEF16F09DEF16F092EF16F005C0E1
:102D3C00D9FF06C0DAFFAECFDFFF010E076E0750DA
:102D4C001200010E066E03500410D8A4B0EF16F05A
:102D5C00B2EF16F0B6EF16F0000E066EBFEF16F0DF
:102D6C00ACA2BBEF16F0BDEF16F0B6EF16F005C037
:102D7C00ADFF065012009D9848504910D8B4C9EFC9
:102D8C0016F0CBEF16F0D7EF16F002D8D7EF16F0FF
:102D9C000500FA6E4850FD6E4950FE6EFF6AFA50FF
:102DAC0012001200E4EC16F0D10E0001F76F000EC9
:102DBC00F86F57EC16F00001F96F12007C0E116ED3
:102DCC00000E126EB4EC15F01200A1924B50B36EC3
:102DDC004AC0B2FF12009E904D50CF6E4CC0CEFF39
:102DEC001200F2944F50D76E4EC0D6FF1200010164
:102DFC0001010B0303920A029E9268C0CCFF1200E1
:102E0C00F2901200F2901200F2901200F290120066
:102E1C00F2901200F2901200F2901200F290120056
:102E2C00F0921200F0901200F2921200A190120097
:0A2E3C009E94120012001200120012
:020000040020DA
:08000000FFFFFFFFFFFFFFFF00
:020000040030CA
:0E000000FF02091EFF8181FF0FC00FE00F40BD
:00000001FF
